{
  "contractName": "SimpleERC20Token",
  "abi": [
    {
      "inputs": [],
      "payable": false,
      "stateMutability": "nonpayable",
      "type": "constructor"
    },
    {
      "anonymous": false,
      "inputs": [
        {
          "indexed": true,
          "internalType": "address",
          "name": "owner",
          "type": "address"
        },
        {
          "indexed": true,
          "internalType": "address",
          "name": "spender",
          "type": "address"
        },
        {
          "indexed": false,
          "internalType": "uint256",
          "name": "value",
          "type": "uint256"
        }
      ],
      "name": "Approval",
      "type": "event"
    },
    {
      "anonymous": false,
      "inputs": [
        {
          "indexed": true,
          "internalType": "address",
          "name": "from",
          "type": "address"
        },
        {
          "indexed": true,
          "internalType": "address",
          "name": "to",
          "type": "address"
        },
        {
          "indexed": false,
          "internalType": "uint256",
          "name": "value",
          "type": "uint256"
        }
      ],
      "name": "Transfer",
      "type": "event"
    },
    {
      "constant": true,
      "inputs": [
        {
          "internalType": "address",
          "name": "",
          "type": "address"
        }
      ],
      "name": "balanceOf",
      "outputs": [
        {
          "internalType": "uint256",
          "name": "",
          "type": "uint256"
        }
      ],
      "payable": false,
      "stateMutability": "view",
      "type": "function"
    },
    {
      "constant": true,
      "inputs": [],
      "name": "decimals",
      "outputs": [
        {
          "internalType": "uint8",
          "name": "",
          "type": "uint8"
        }
      ],
      "payable": false,
      "stateMutability": "view",
      "type": "function"
    },
    {
      "constant": true,
      "inputs": [],
      "name": "name",
      "outputs": [
        {
          "internalType": "string",
          "name": "",
          "type": "string"
        }
      ],
      "payable": false,
      "stateMutability": "view",
      "type": "function"
    },
    {
      "constant": true,
      "inputs": [],
      "name": "owner",
      "outputs": [
        {
          "internalType": "address",
          "name": "",
          "type": "address"
        }
      ],
      "payable": false,
      "stateMutability": "view",
      "type": "function"
    },
    {
      "constant": true,
      "inputs": [],
      "name": "symbol",
      "outputs": [
        {
          "internalType": "string",
          "name": "",
          "type": "string"
        }
      ],
      "payable": false,
      "stateMutability": "view",
      "type": "function"
    },
    {
      "constant": true,
      "inputs": [],
      "name": "totalSupply",
      "outputs": [
        {
          "internalType": "uint256",
          "name": "",
          "type": "uint256"
        }
      ],
      "payable": false,
      "stateMutability": "view",
      "type": "function"
    },
    {
      "constant": false,
      "inputs": [
        {
          "internalType": "address",
          "name": "to",
          "type": "address"
        },
        {
          "internalType": "uint256",
          "name": "value",
          "type": "uint256"
        }
      ],
      "name": "transfer",
      "outputs": [
        {
          "internalType": "bool",
          "name": "success",
          "type": "bool"
        }
      ],
      "payable": false,
      "stateMutability": "nonpayable",
      "type": "function"
    },
    {
      "constant": false,
      "inputs": [
        {
          "internalType": "address",
          "name": "spender",
          "type": "address"
        },
        {
          "internalType": "uint256",
          "name": "value",
          "type": "uint256"
        }
      ],
      "name": "approve",
      "outputs": [
        {
          "internalType": "bool",
          "name": "success",
          "type": "bool"
        }
      ],
      "payable": false,
      "stateMutability": "nonpayable",
      "type": "function"
    },
    {
      "constant": false,
      "inputs": [
        {
          "internalType": "address",
          "name": "from",
          "type": "address"
        },
        {
          "internalType": "address",
          "name": "to",
          "type": "address"
        },
        {
          "internalType": "uint256",
          "name": "value",
          "type": "uint256"
        }
      ],
      "name": "transferFrom",
      "outputs": [
        {
          "internalType": "bool",
          "name": "success",
          "type": "bool"
        }
      ],
      "payable": false,
      "stateMutability": "nonpayable",
      "type": "function"
    }
  ],
  "bytecode": "0x60806040526040518060400160405280601381526020017f4368617269747920455243323020546f6b656e000000000000000000000000008152506002908051906020019061004f92919061021a565b506040518060400160405280600481526020017f43544b4e000000000000000000000000000000000000000000000000000000008152506003908051906020019061009b92919061021a565b506012600460006101000a81548160ff021916908360ff160217905550600460009054906101000a900460ff1660ff16600a0a620f4240026005553480156100e257600080fd5b5033600160006101000a81548173ffffffffffffffffffffffffffffffffffffffff021916908373ffffffffffffffffffffffffffffffffffffffff160217905550600554600080600160009054906101000a900473ffffffffffffffffffffffffffffffffffffffff1673ffffffffffffffffffffffffffffffffffffffff1673ffffffffffffffffffffffffffffffffffffffff16815260200190815260200160002081905550600160009054906101000a900473ffffffffffffffffffffffffffffffffffffffff1673ffffffffffffffffffffffffffffffffffffffff16600073ffffffffffffffffffffffffffffffffffffffff167fddf252ad1be2c89b69c2b068fc378daa952ba7f163c4a11628f55a4df523b3ef6005546040518082815260200191505060405180910390a36102bf565b828054600181600116156101000203166002900490600052602060002090601f016020900481019282601f1061025b57805160ff1916838001178555610289565b82800160010185558215610289579182015b8281111561028857825182559160200191906001019061026d565b5b509050610296919061029a565b5090565b6102bc91905b808211156102b85760008160009055506001016102a0565b5090565b90565b610bf8806102ce6000396000f3fe608060405234801561001057600080fd5b50600436106100935760003560e01c8063313ce56711610066578063313ce5671461022557806370a08231146102495780638da5cb5b146102a157806395d89b41146102eb578063a9059cbb1461036e57610093565b806306fdde0314610098578063095ea7b31461011b57806318160ddd1461018157806323b872dd1461019f575b600080fd5b6100a06103d4565b6040518080602001828103825283818151815260200191508051906020019080838360005b838110156100e05780820151818401526020810190506100c5565b50505050905090810190601f16801561010d5780820380516001836020036101000a031916815260200191505b509250505060405180910390f35b6101676004803603604081101561013157600080fd5b81019080803573ffffffffffffffffffffffffffffffffffffffff16906020019092919080359060200190929190505050610472565b604051808215151515815260200191505060405180910390f35b610189610564565b6040518082815260200191505060405180910390f35b61020b600480360360608110156101b557600080fd5b81019080803573ffffffffffffffffffffffffffffffffffffffff169060200190929190803573ffffffffffffffffffffffffffffffffffffffff1690602001909291908035906020019092919050505061056a565b604051808215151515815260200191505060405180910390f35b61022d6108a4565b604051808260ff1660ff16815260200191505060405180910390f35b61028b6004803603602081101561025f57600080fd5b81019080803573ffffffffffffffffffffffffffffffffffffffff1690602001909291905050506108b7565b6040518082815260200191505060405180910390f35b6102a96108cf565b604051808273ffffffffffffffffffffffffffffffffffffffff1673ffffffffffffffffffffffffffffffffffffffff16815260200191505060405180910390f35b6102f36108f5565b6040518080602001828103825283818151815260200191508051906020019080838360005b83811015610333578082015181840152602081019050610318565b50505050905090810190601f1680156103605780820380516001836020036101000a031916815260200191505b509250505060405180910390f35b6103ba6004803603604081101561038457600080fd5b81019080803573ffffffffffffffffffffffffffffffffffffffff16906020019092919080359060200190929190505050610993565b604051808215151515815260200191505060405180910390f35b60028054600181600116156101000203166002900480601f01602080910402602001604051908101604052809291908181526020018280546001816001161561010002031660029004801561046a5780601f1061043f5761010080835404028352916020019161046a565b820191906000526020600020905b81548152906001019060200180831161044d57829003601f168201915b505050505081565b600081600660003373ffffffffffffffffffffffffffffffffffffffff1673ffffffffffffffffffffffffffffffffffffffff16815260200190815260200160002060008573ffffffffffffffffffffffffffffffffffffffff1673ffffffffffffffffffffffffffffffffffffffff168152602001908152602001600020819055508273ffffffffffffffffffffffffffffffffffffffff163373ffffffffffffffffffffffffffffffffffffffff167f8c5be1e5ebec7d5bd14f71427d1e84f3dd0314c0f7b2291e5b200ac8c7c3b925846040518082815260200191505060405180910390a36001905092915050565b60055481565b60008060008573ffffffffffffffffffffffffffffffffffffffff1673ffffffffffffffffffffffffffffffffffffffff16815260200190815260200160002054821115610620576040517f08c379a00000000000000000000000000000000000000000000000000000000081526004018080602001828103825260148152602001807f42616c616e63653a204e6f204f766572666c6f7700000000000000000000000081525060200191505060405180910390fd5b600660008573ffffffffffffffffffffffffffffffffffffffff1673ffffffffffffffffffffffffffffffffffffffff16815260200190815260200160002060003373ffffffffffffffffffffffffffffffffffffffff1673ffffffffffffffffffffffffffffffffffffffff16815260200190815260200160002054821115610712576040517f08c379a00000000000000000000000000000000000000000000000000000000081526004018080602001828103825260168152602001807f416c6c6f77616e63653a204e6f204f766572666c6f770000000000000000000081525060200191505060405180910390fd5b816000808673ffffffffffffffffffffffffffffffffffffffff1673ffffffffffffffffffffffffffffffffffffffff16815260200190815260200160002060008282540392505081905550816000808573ffffffffffffffffffffffffffffffffffffffff1673ffffffffffffffffffffffffffffffffffffffff1681526020019081526020016000206000828254019250508190555081600660008673ffffffffffffffffffffffffffffffffffffffff1673ffffffffffffffffffffffffffffffffffffffff16815260200190815260200160002060003373ffffffffffffffffffffffffffffffffffffffff1673ffffffffffffffffffffffffffffffffffffffff168152602001908152602001600020600082825403925050819055508273ffffffffffffffffffffffffffffffffffffffff168473ffffffffffffffffffffffffffffffffffffffff167fddf252ad1be2c89b69c2b068fc378daa952ba7f163c4a11628f55a4df523b3ef846040518082815260200191505060405180910390a3600190509392505050565b600460009054906101000a900460ff1681565b60006020528060005260406000206000915090505481565b600160009054906101000a900473ffffffffffffffffffffffffffffffffffffffff1681565b60038054600181600116156101000203166002900480601f01602080910402602001604051908101604052809291908181526020018280546001816001161561010002031660029004801561098b5780601f106109605761010080835404028352916020019161098b565b820191906000526020600020905b81548152906001019060200180831161096e57829003601f168201915b505050505081565b600081600080600160009054906101000a900473ffffffffffffffffffffffffffffffffffffffff1673ffffffffffffffffffffffffffffffffffffffff1673ffffffffffffffffffffffffffffffffffffffff168152602001908152602001600020541015610a4e576040517f08c379a000000000000000000000000000000000000000000000000000000000815260040180806020018281038252602a815260200180610b9a602a913960400191505060405180910390fd5b81600080600160009054906101000a900473ffffffffffffffffffffffffffffffffffffffff1673ffffffffffffffffffffffffffffffffffffffff1673ffffffffffffffffffffffffffffffffffffffff16815260200190815260200160002060008282540392505081905550816000808573ffffffffffffffffffffffffffffffffffffffff1673ffffffffffffffffffffffffffffffffffffffff168152602001908152602001600020600082825401925050819055508273ffffffffffffffffffffffffffffffffffffffff16600160009054906101000a900473ffffffffffffffffffffffffffffffffffffffff1673ffffffffffffffffffffffffffffffffffffffff167fddf252ad1be2c89b69c2b068fc378daa952ba7f163c4a11628f55a4df523b3ef846040518082815260200191505060405180910390a3600190509291505056fe42616c616e6365206f66204f776e6572206973206e6f742067726561746572207468616e2056616c7565a265627a7a723158207f524b9d730a6e6243cf98bbeace17364bf251b8434dd8d1823ffb0e359e0e0664736f6c63430005100032",
  "source": "pragma solidity 0.5.16;\n\ncontract SimpleERC20Token {\n    // Track how many tokens are owned by each address.\n    mapping(address => uint256) public balanceOf;\n    address public owner;\n\n    // Modify this section\n    string public name = \"Charity ERC20 Token\";\n    string public symbol = \"CTKN\";\n    uint8 public decimals = 18;\n    uint256 public totalSupply = 1000000 * (uint256(10)**decimals);\n\n    event Transfer(address indexed from, address indexed to, uint256 value);\n\n    constructor() public {\n        // Initially assign all tokens to the contract's creator.\n        owner = msg.sender;\n        balanceOf[owner] = totalSupply;\n        emit Transfer(address(0), owner, totalSupply);\n    }\n\n    function transfer(address to, uint256 value) public returns (bool success) {\n        require(\n            balanceOf[owner] >= value,\n            \"Balance of Owner is not greater than Value\"\n        );\n\n        balanceOf[owner] -= value; // deduct from sender's balance\n        balanceOf[to] += value; // add to recipient's balance\n        emit Transfer(owner, to, value);\n        return true;\n    }\n\n    event Approval(\n        address indexed owner,\n        address indexed spender,\n        uint256 value\n    );\n\n    mapping(address => mapping(address => uint256)) private allowance;\n\n    function approve(address spender, uint256 value)\n        public\n        returns (bool success)\n    {\n        allowance[msg.sender][spender] = value;\n        emit Approval(msg.sender, spender, value);\n        return true;\n    }\n\n    function transferFrom(\n        address from,\n        address to,\n        uint256 value\n    ) public returns (bool success) {\n        require(value <= balanceOf[from], \"Balance: No Overflow\");\n        require(value <= allowance[from][msg.sender], \"Allowance: No Overflow\");\n\n        balanceOf[from] -= value;\n        balanceOf[to] += value;\n        allowance[from][msg.sender] -= value;\n        emit Transfer(from, to, value);\n        return true;\n    }\n}\n\ncontract SupplyChain is SimpleERC20Token {\n    enum Category {\n        Food,\n        Clothing,\n        Furniture,\n        Education,\n        Transportation,\n        Medical,\n        Funding\n    }\n\n    struct Charity {\n        string charityName;\n        address ID;\n        string request;\n        uint256 members;\n        string primaryContact;\n        bool urgent;\n        uint256 tokenReward;\n        bool selected;\n        Category category;\n        uint256 expiry;\n        uint256 index;\n    }\n\n    struct Supplier {\n        string supplierName;\n        address ID;\n        uint256 members;\n        string primaryContact;\n        Category category;\n        uint256 index;\n    }\n\n    string[] public charityIndex;\n    string[] private supplierIndex;\n    address[] private addressIndex;\n\n    mapping(string => string) public char2Supp;\n    mapping(string => address) public supplierAddress;\n    mapping(string => Charity) public Charities;\n    mapping(string => Supplier) private Suppliers;\n    mapping(address => Charity) private Addresses;\n\n    event LogNewCharity(\n        string charityName,\n        address ID,\n        string request,\n        string primaryContact,\n        bool urgent,\n        uint256 tokenReward,\n        uint256 index\n    );\n    event LogNewSupplier(\n        string supplierName,\n        address ID,\n        string primaryContact,\n        uint256 index\n    );\n    event LogDeleteCharity(\n        string charityName,\n        bool completedRequest,\n        uint256 index\n    );\n\n    constructor() public {\n        // Initially assign all tokens to the contract's creator.\n        owner = msg.sender;\n    }\n\n    function isCharity(\n        string memory charity //USE for address TRUE mapping for allowing authorization\n    ) public view returns (bool isIndeed) {\n        if (charityIndex.length == 0) return false;\n\n        return\n            keccak256(bytes(charity)) ==\n            keccak256(bytes(charityIndex[Charities[charity].index]));\n    }\n\n    function isSupplier(string memory supplier)\n        public\n        view\n        returns (bool isIndeed)\n    {\n        if (supplierIndex.length == 0) return false;\n\n        return\n            keccak256(bytes(supplier)) ==\n            keccak256(bytes(supplierIndex[Suppliers[supplier].index]));\n    }\n\n    function isAddress(address ID) public view returns (bool isIndeed) {\n        if (addressIndex.length == 0) return false;\n\n        return ((ID) == (addressIndex[Addresses[ID].index]));\n    }\n\n    function addCharity(\n        string memory charityName,\n        address ID,\n        string memory request,\n        uint256 members,\n        string memory primaryContact,\n        bool urgent,\n        Category category\n    ) public returns (uint256 index) {\n        require(!isCharity(charityName), \"Will not allow duplicate Charities\");\n        require(!isAddress(ID), \"Will not allow duplicate IDs\");\n\n        Addresses[ID].index = addressIndex.push(ID) - 1;\n        Charities[charityName].ID = ID;\n        Charities[charityName].members = members;\n        Charities[charityName].request = request;\n        Charities[charityName].primaryContact = primaryContact;\n        Charities[charityName].urgent = urgent;\n        if (urgent == true) {\n            Charities[charityName].tokenReward = 4;\n        } else {\n            Charities[charityName].tokenReward = 2;\n        }\n        Charities[charityName].category = category;\n        Charities[charityName].selected = false;\n        Charities[charityName].index = charityIndex.push(charityName) - 1;\n        emit LogNewCharity(\n            charityName,\n            ID,\n            request,\n            primaryContact,\n            urgent,\n            Charities[charityName].tokenReward,\n            Charities[charityName].index\n        );\n        return charityIndex.length - 1;\n    }\n\n    function getCharityInfo(string memory charity)\n        public\n        returns (\n            address ID,\n            uint256 members,\n            string memory primaryContact,\n            string memory request,\n            Category category,\n            uint256 tokenReward,\n            bool selected\n        )\n    {\n        require(isCharity(charity), \"Charity requested is not within list\");\n        if (block.timestamp > Charities[charity].expiry) {\n            Charities[charity].selected = false;\n        }\n        return (\n            Charities[charity].ID,\n            Charities[charity].members,\n            Charities[charity].primaryContact,\n            Charities[charity].request,\n            Charities[charity].category,\n            Charities[charity].tokenReward,\n            Charities[charity].selected\n        );\n    }\n\n    function categoryMatch(string memory charity)\n        public\n        view\n        returns (Category)\n    {\n        return Charities[charity].category;\n    }\n\n    function addSupplier(\n        string memory supplier,\n        address ID,\n        uint256 members,\n        string memory primaryContact,\n        Category category\n    ) public returns (string memory charityList) {\n        require(!isSupplier(supplier), \"Will not allow duplicate Suppliers\");\n        require(!isAddress(ID), \"Will not allow duplicate IDs\");\n        Addresses[ID].index = addressIndex.push(ID) - 1;\n        Suppliers[supplier].ID = ID;\n        supplierAddress[supplier] = Suppliers[supplier].ID;\n        Suppliers[supplier].members = members;\n        Suppliers[supplier].primaryContact = primaryContact;\n        Suppliers[supplier].category = category;\n        Suppliers[supplier].index = supplierIndex.push(supplier) - 1;\n\n        string memory rString;\n\n        for (uint256 i = 0; i < charityIndex.length; i++) {\n            if (category == categoryMatch(charityIndex[i])) {\n                rString = strConcat(rString, charityIndex[i]);\n                rString = strConcat(rString, \", \");\n            }\n        }\n\n        emit LogNewSupplier(\n            supplier,\n            ID,\n            primaryContact,\n            Suppliers[supplier].index\n        );\n        return rString;\n    }\n\n    modifier timeCheck(string memory charity) {\n        require(\n            block.timestamp <= Charities[charity].expiry,\n            \"Time to complete request is up. Token reward reverted!\"\n        );\n        _;\n    }\n\n    function selectCharity(\n        string memory charity,\n        string memory supplier,\n        address supplierID\n    ) public returns (bool isSelected) {\n        require(\n            supplierAddress[supplier] == supplierID,\n            \"Contractor title does not match Address provided!\"\n        );\n        require(\n            Charities[charity].category == Suppliers[supplier].category,\n            \"Categories do not match appropriately\"\n        );\n        require(\n            Charities[charity].selected == false,\n            \"Charity has already been selected\"\n        );\n        Charities[charity].expiry = block.timestamp + 10 minutes;\n        char2Supp[charity] = supplier;\n        return Charities[charity].selected = true;\n    }\n\n    function deliverRequest(\n        string memory charity,\n        string memory supplier,\n        address supplierID\n    ) public timeCheck(charity) returns (bool completedRequest) {\n        require(\n            hashComp(char2Supp[charity], supplier) == true,\n            \"Charity was not selected by Contractor provided\"\n        );\n        uint tokens = (Charities[charity].tokenReward) * (uint256(10)**decimals);\n        transfer(supplierID, tokens);\n        deleteRequest1(charity);\n        deleteRequest2(charity);\n        return true;\n    }\n\n    function deleteRequest1(string memory charity) internal {\n        require(isCharity(charity), \"Charity requested is not within list\");\n        uint256 rowToDelete = Addresses[Charities[charity].ID].index;\n        address keyToMove = addressIndex[addressIndex.length - 1];\n        addressIndex[rowToDelete] = keyToMove;\n        Addresses[keyToMove].index = rowToDelete;\n        addressIndex.length--;\n    }\n\n    function deleteRequest2(string memory charity) internal {\n        require(isCharity(charity), \"Charity requested is not within list\");\n        uint256 rowToDelete = Charities[charity].index;\n        string memory keyToMove = charityIndex[charityIndex.length - 1];\n        charityIndex[rowToDelete] = keyToMove;\n        Charities[keyToMove].index = rowToDelete;\n        charityIndex.length--;\n        emit LogDeleteCharity(charity, true, rowToDelete);\n    }\n\n    function strConcat(string memory _a, string memory _b)\n        internal\n        pure\n        returns (string memory)\n    {\n        bytes memory _ba = bytes(_a);\n        bytes memory _bb = bytes(_b);\n        string memory ab = new string(_ba.length + _bb.length);\n        bytes memory bab = bytes(ab);\n        uint256 k = 0;\n        for (uint256 i = 0; i < _ba.length; i++) bab[k++] = _ba[i];\n        for (uint256 i = 0; i < _bb.length; i++) bab[k++] = _bb[i];\n        return string(bab);\n    }\n\n    function hashComp(string memory a, string memory b)\n        internal\n        pure\n        returns (bool)\n    {\n        if (bytes(a).length != bytes(b).length) {\n            return false;\n        } else {\n            return keccak256(bytes(a)) == keccak256(bytes(b));\n        }\n    }\n}\n",
  "sourcePath": "/Users/Beth/Charity/contracts/Charity.sol",
  "compiler": {
    "name": "solc",
    "version": "0.5.16+commit.9c3226ce.Emscripten.clang"
  },
  "schemaVersion": "3.0.22",
  "updatedAt": "2020-06-29T05:45:14.866Z",
  "networkType": "ethereum",
  "devdoc": {
    "methods": {}
  },
  "userdoc": {
    "methods": {}
  }
}