{
  "contractName": "SupplyChain",
  "abi": [
    {
      "inputs": [],
      "payable": false,
      "stateMutability": "nonpayable",
      "type": "constructor"
    },
    {
      "anonymous": false,
      "inputs": [
        {
          "indexed": true,
          "internalType": "address",
          "name": "owner",
          "type": "address"
        },
        {
          "indexed": true,
          "internalType": "address",
          "name": "spender",
          "type": "address"
        },
        {
          "indexed": false,
          "internalType": "uint256",
          "name": "value",
          "type": "uint256"
        }
      ],
      "name": "Approval",
      "type": "event"
    },
    {
      "anonymous": false,
      "inputs": [
        {
          "indexed": false,
          "internalType": "string",
          "name": "charityName",
          "type": "string"
        },
        {
          "indexed": false,
          "internalType": "bool",
          "name": "completedRequest",
          "type": "bool"
        },
        {
          "indexed": false,
          "internalType": "uint256",
          "name": "index",
          "type": "uint256"
        }
      ],
      "name": "LogDeleteCharity",
      "type": "event"
    },
    {
      "anonymous": false,
      "inputs": [
        {
          "indexed": false,
          "internalType": "string",
          "name": "charityName",
          "type": "string"
        },
        {
          "indexed": false,
          "internalType": "address",
          "name": "ID",
          "type": "address"
        },
        {
          "indexed": false,
          "internalType": "string",
          "name": "request",
          "type": "string"
        },
        {
          "indexed": false,
          "internalType": "string",
          "name": "primaryContact",
          "type": "string"
        },
        {
          "indexed": false,
          "internalType": "bool",
          "name": "urgent",
          "type": "bool"
        },
        {
          "indexed": false,
          "internalType": "uint256",
          "name": "tokenReward",
          "type": "uint256"
        },
        {
          "indexed": false,
          "internalType": "uint256",
          "name": "index",
          "type": "uint256"
        }
      ],
      "name": "LogNewCharity",
      "type": "event"
    },
    {
      "anonymous": false,
      "inputs": [
        {
          "indexed": false,
          "internalType": "string",
          "name": "supplierName",
          "type": "string"
        },
        {
          "indexed": false,
          "internalType": "address",
          "name": "ID",
          "type": "address"
        },
        {
          "indexed": false,
          "internalType": "string",
          "name": "primaryContact",
          "type": "string"
        },
        {
          "indexed": false,
          "internalType": "uint256",
          "name": "index",
          "type": "uint256"
        }
      ],
      "name": "LogNewSupplier",
      "type": "event"
    },
    {
      "anonymous": false,
      "inputs": [
        {
          "indexed": true,
          "internalType": "address",
          "name": "from",
          "type": "address"
        },
        {
          "indexed": true,
          "internalType": "address",
          "name": "to",
          "type": "address"
        },
        {
          "indexed": false,
          "internalType": "uint256",
          "name": "value",
          "type": "uint256"
        }
      ],
      "name": "Transfer",
      "type": "event"
    },
    {
      "constant": true,
      "inputs": [
        {
          "internalType": "string",
          "name": "",
          "type": "string"
        }
      ],
      "name": "Charities",
      "outputs": [
        {
          "internalType": "string",
          "name": "charityName",
          "type": "string"
        },
        {
          "internalType": "address",
          "name": "ID",
          "type": "address"
        },
        {
          "internalType": "string",
          "name": "request",
          "type": "string"
        },
        {
          "internalType": "uint256",
          "name": "members",
          "type": "uint256"
        },
        {
          "internalType": "string",
          "name": "primaryContact",
          "type": "string"
        },
        {
          "internalType": "bool",
          "name": "urgent",
          "type": "bool"
        },
        {
          "internalType": "uint256",
          "name": "tokenReward",
          "type": "uint256"
        },
        {
          "internalType": "bool",
          "name": "selected",
          "type": "bool"
        },
        {
          "internalType": "enum SupplyChain.Category",
          "name": "category",
          "type": "uint8"
        },
        {
          "internalType": "uint256",
          "name": "index",
          "type": "uint256"
        }
      ],
      "payable": false,
      "stateMutability": "view",
      "type": "function"
    },
    {
      "constant": false,
      "inputs": [
        {
          "internalType": "address",
          "name": "spender",
          "type": "address"
        },
        {
          "internalType": "uint256",
          "name": "value",
          "type": "uint256"
        }
      ],
      "name": "approve",
      "outputs": [
        {
          "internalType": "bool",
          "name": "success",
          "type": "bool"
        }
      ],
      "payable": false,
      "stateMutability": "nonpayable",
      "type": "function"
    },
    {
      "constant": true,
      "inputs": [
        {
          "internalType": "address",
          "name": "",
          "type": "address"
        }
      ],
      "name": "balanceOf",
      "outputs": [
        {
          "internalType": "uint256",
          "name": "",
          "type": "uint256"
        }
      ],
      "payable": false,
      "stateMutability": "view",
      "type": "function"
    },
    {
      "constant": true,
      "inputs": [
        {
          "internalType": "string",
          "name": "",
          "type": "string"
        }
      ],
      "name": "char2Supp",
      "outputs": [
        {
          "internalType": "string",
          "name": "",
          "type": "string"
        }
      ],
      "payable": false,
      "stateMutability": "view",
      "type": "function"
    },
    {
      "constant": true,
      "inputs": [
        {
          "internalType": "uint256",
          "name": "",
          "type": "uint256"
        }
      ],
      "name": "charityIndex",
      "outputs": [
        {
          "internalType": "string",
          "name": "",
          "type": "string"
        }
      ],
      "payable": false,
      "stateMutability": "view",
      "type": "function"
    },
    {
      "constant": true,
      "inputs": [],
      "name": "decimals",
      "outputs": [
        {
          "internalType": "uint8",
          "name": "",
          "type": "uint8"
        }
      ],
      "payable": false,
      "stateMutability": "view",
      "type": "function"
    },
    {
      "constant": true,
      "inputs": [],
      "name": "expires",
      "outputs": [
        {
          "internalType": "uint256",
          "name": "",
          "type": "uint256"
        }
      ],
      "payable": false,
      "stateMutability": "view",
      "type": "function"
    },
    {
      "constant": true,
      "inputs": [],
      "name": "name",
      "outputs": [
        {
          "internalType": "string",
          "name": "",
          "type": "string"
        }
      ],
      "payable": false,
      "stateMutability": "view",
      "type": "function"
    },
    {
      "constant": true,
      "inputs": [],
      "name": "owner",
      "outputs": [
        {
          "internalType": "address",
          "name": "",
          "type": "address"
        }
      ],
      "payable": false,
      "stateMutability": "view",
      "type": "function"
    },
    {
      "constant": true,
      "inputs": [
        {
          "internalType": "string",
          "name": "",
          "type": "string"
        }
      ],
      "name": "supplierAddress",
      "outputs": [
        {
          "internalType": "address",
          "name": "",
          "type": "address"
        }
      ],
      "payable": false,
      "stateMutability": "view",
      "type": "function"
    },
    {
      "constant": true,
      "inputs": [],
      "name": "symbol",
      "outputs": [
        {
          "internalType": "string",
          "name": "",
          "type": "string"
        }
      ],
      "payable": false,
      "stateMutability": "view",
      "type": "function"
    },
    {
      "constant": true,
      "inputs": [],
      "name": "totalSupply",
      "outputs": [
        {
          "internalType": "uint256",
          "name": "",
          "type": "uint256"
        }
      ],
      "payable": false,
      "stateMutability": "view",
      "type": "function"
    },
    {
      "constant": false,
      "inputs": [
        {
          "internalType": "address",
          "name": "to",
          "type": "address"
        },
        {
          "internalType": "uint256",
          "name": "value",
          "type": "uint256"
        }
      ],
      "name": "transfer",
      "outputs": [
        {
          "internalType": "bool",
          "name": "success",
          "type": "bool"
        }
      ],
      "payable": false,
      "stateMutability": "nonpayable",
      "type": "function"
    },
    {
      "constant": false,
      "inputs": [
        {
          "internalType": "address",
          "name": "from",
          "type": "address"
        },
        {
          "internalType": "address",
          "name": "to",
          "type": "address"
        },
        {
          "internalType": "uint256",
          "name": "value",
          "type": "uint256"
        }
      ],
      "name": "transferFrom",
      "outputs": [
        {
          "internalType": "bool",
          "name": "success",
          "type": "bool"
        }
      ],
      "payable": false,
      "stateMutability": "nonpayable",
      "type": "function"
    },
    {
      "constant": true,
      "inputs": [
        {
          "internalType": "string",
          "name": "charity",
          "type": "string"
        }
      ],
      "name": "isCharity",
      "outputs": [
        {
          "internalType": "bool",
          "name": "isIndeed",
          "type": "bool"
        }
      ],
      "payable": false,
      "stateMutability": "view",
      "type": "function"
    },
    {
      "constant": true,
      "inputs": [
        {
          "internalType": "string",
          "name": "supplier",
          "type": "string"
        }
      ],
      "name": "isSupplier",
      "outputs": [
        {
          "internalType": "bool",
          "name": "isIndeed",
          "type": "bool"
        }
      ],
      "payable": false,
      "stateMutability": "view",
      "type": "function"
    },
    {
      "constant": true,
      "inputs": [
        {
          "internalType": "address",
          "name": "ID",
          "type": "address"
        }
      ],
      "name": "isAddress",
      "outputs": [
        {
          "internalType": "bool",
          "name": "isIndeed",
          "type": "bool"
        }
      ],
      "payable": false,
      "stateMutability": "view",
      "type": "function"
    },
    {
      "constant": false,
      "inputs": [
        {
          "internalType": "string",
          "name": "charityName",
          "type": "string"
        },
        {
          "internalType": "address",
          "name": "ID",
          "type": "address"
        },
        {
          "internalType": "string",
          "name": "request",
          "type": "string"
        },
        {
          "internalType": "uint256",
          "name": "members",
          "type": "uint256"
        },
        {
          "internalType": "string",
          "name": "primaryContact",
          "type": "string"
        },
        {
          "internalType": "bool",
          "name": "urgent",
          "type": "bool"
        },
        {
          "internalType": "enum SupplyChain.Category",
          "name": "category",
          "type": "uint8"
        }
      ],
      "name": "addCharity",
      "outputs": [
        {
          "internalType": "uint256",
          "name": "index",
          "type": "uint256"
        }
      ],
      "payable": false,
      "stateMutability": "nonpayable",
      "type": "function"
    },
    {
      "constant": true,
      "inputs": [
        {
          "internalType": "string",
          "name": "charity",
          "type": "string"
        }
      ],
      "name": "requestType",
      "outputs": [
        {
          "internalType": "string",
          "name": "",
          "type": "string"
        }
      ],
      "payable": false,
      "stateMutability": "view",
      "type": "function"
    },
    {
      "constant": false,
      "inputs": [
        {
          "internalType": "string",
          "name": "charity",
          "type": "string"
        }
      ],
      "name": "getCharityInfo",
      "outputs": [
        {
          "internalType": "address",
          "name": "ID",
          "type": "address"
        },
        {
          "internalType": "uint256",
          "name": "members",
          "type": "uint256"
        },
        {
          "internalType": "string",
          "name": "primaryContact",
          "type": "string"
        },
        {
          "internalType": "string",
          "name": "request",
          "type": "string"
        },
        {
          "internalType": "enum SupplyChain.Category",
          "name": "category",
          "type": "uint8"
        },
        {
          "internalType": "uint256",
          "name": "tokenReward",
          "type": "uint256"
        },
        {
          "internalType": "bool",
          "name": "selected",
          "type": "bool"
        }
      ],
      "payable": false,
      "stateMutability": "nonpayable",
      "type": "function"
    },
    {
      "constant": true,
      "inputs": [
        {
          "internalType": "string",
          "name": "charity",
          "type": "string"
        }
      ],
      "name": "categoryMatch",
      "outputs": [
        {
          "internalType": "enum SupplyChain.Category",
          "name": "",
          "type": "uint8"
        }
      ],
      "payable": false,
      "stateMutability": "view",
      "type": "function"
    },
    {
      "constant": false,
      "inputs": [
        {
          "internalType": "string",
          "name": "supplier",
          "type": "string"
        },
        {
          "internalType": "address",
          "name": "ID",
          "type": "address"
        },
        {
          "internalType": "uint256",
          "name": "members",
          "type": "uint256"
        },
        {
          "internalType": "string",
          "name": "primaryContact",
          "type": "string"
        },
        {
          "internalType": "enum SupplyChain.Category",
          "name": "category",
          "type": "uint8"
        }
      ],
      "name": "addSupplier",
      "outputs": [
        {
          "internalType": "string",
          "name": "charityList",
          "type": "string"
        }
      ],
      "payable": false,
      "stateMutability": "nonpayable",
      "type": "function"
    },
    {
      "constant": false,
      "inputs": [
        {
          "internalType": "string",
          "name": "charity",
          "type": "string"
        },
        {
          "internalType": "string",
          "name": "supplier",
          "type": "string"
        },
        {
          "internalType": "address",
          "name": "supplierID",
          "type": "address"
        }
      ],
      "name": "selectCharity",
      "outputs": [
        {
          "internalType": "bool",
          "name": "isSelected",
          "type": "bool"
        }
      ],
      "payable": false,
      "stateMutability": "nonpayable",
      "type": "function"
    },
    {
      "constant": false,
      "inputs": [
        {
          "internalType": "string",
          "name": "charity",
          "type": "string"
        },
        {
          "internalType": "string",
          "name": "supplier",
          "type": "string"
        },
        {
          "internalType": "address",
          "name": "supplierID",
          "type": "address"
        }
      ],
      "name": "deliverRequest",
      "outputs": [
        {
          "internalType": "bool",
          "name": "completedRequest",
          "type": "bool"
        }
      ],
      "payable": false,
      "stateMutability": "nonpayable",
      "type": "function"
    }
  ],
  "bytecode": "0x60806040526040518060400160405280601381526020017f4368617269747920455243323020546f6b656e00000000000000000000000000815250600290805190602001906200005192919062000261565b506040518060400160405280600481526020017f43544b4e00000000000000000000000000000000000000000000000000000000815250600390805190602001906200009f92919062000261565b506012600460006101000a81548160ff021916908360ff160217905550600460009054906101000a900460ff1660ff16600a0a620f424002600555348015620000e757600080fd5b5033600160006101000a81548173ffffffffffffffffffffffffffffffffffffffff021916908373ffffffffffffffffffffffffffffffffffffffff160217905550600554600080600160009054906101000a900473ffffffffffffffffffffffffffffffffffffffff1673ffffffffffffffffffffffffffffffffffffffff1673ffffffffffffffffffffffffffffffffffffffff16815260200190815260200160002081905550600160009054906101000a900473ffffffffffffffffffffffffffffffffffffffff1673ffffffffffffffffffffffffffffffffffffffff16600073ffffffffffffffffffffffffffffffffffffffff167fddf252ad1be2c89b69c2b068fc378daa952ba7f163c4a11628f55a4df523b3ef6005546040518082815260200191505060405180910390a333600160006101000a81548173ffffffffffffffffffffffffffffffffffffffff021916908373ffffffffffffffffffffffffffffffffffffffff16021790555062000310565b828054600181600116156101000203166002900490600052602060002090601f016020900481019282601f10620002a457805160ff1916838001178555620002d5565b82800160010185558215620002d5579182015b82811115620002d4578251825591602001919060010190620002b7565b5b509050620002e49190620002e8565b5090565b6200030d91905b8082111562000309576000816000905550600101620002ef565b5090565b90565b61559380620003206000396000f3fe608060405234801561001057600080fd5b50600436106101585760003560e01c80636ddb233d116100c3578063adaccb631161007c578063adaccb63146110a1578063b1cb0db31461122b578063c042825914611249578063e3194f04146113d3578063fb7892ba146114ce578063fcbb604d1461157557610158565b80636ddb233d14610be057806370a0823114610de25780638da5cb5b14610e3a57806395d89b4114610e84578063a9059cbb14610f07578063ac9ccfa414610f6d57610158565b806330fa7f911161011557806330fa7f9114610646578063313ce567146108865780633f227aa6146108aa5780634dc50ae11461097d5780635c32460b14610a50578063616de83114610aac57610158565b806306fdde031461015d578063095ea7b3146101e05780630bfeba22146102465780631042b0521461032357806318160ddd146105a257806323b872dd146105c0575b600080fd5b610165611776565b6040518080602001828103825283818151815260200191508051906020019080838360005b838110156101a557808201518184015260208101905061018a565b50505050905090810190601f1680156101d25780820380516001836020036101000a031916815260200191505b509250505060405180910390f35b61022c600480360360408110156101f657600080fd5b81019080803573ffffffffffffffffffffffffffffffffffffffff16906020019092919080359060200190929190505050611814565b604051808215151515815260200191505060405180910390f35b6102ff6004803603602081101561025c57600080fd5b810190808035906020019064010000000081111561027957600080fd5b82018360208201111561028b57600080fd5b803590602001918460018302840111640100000000831117156102ad57600080fd5b91908080601f016020809104026020016040519081016040528093929190818152602001838380828437600081840152601f19601f820116905080830192505050505050509192919290505050611906565b6040518082600681111561030f57fe5b60ff16815260200191505060405180910390f35b6103dc6004803603602081101561033957600080fd5b810190808035906020019064010000000081111561035657600080fd5b82018360208201111561036857600080fd5b8035906020019184600183028401116401000000008311171561038a57600080fd5b91908080601f016020809104026020016040519081016040528093929190818152602001838380828437600081840152601f19601f820116905080830192505050505050509192919290505050611989565b60405180806020018b73ffffffffffffffffffffffffffffffffffffffff1673ffffffffffffffffffffffffffffffffffffffff168152602001806020018a815260200180602001891515151581526020018881526020018715151515815260200186600681111561044a57fe5b60ff16815260200185815260200184810384528e818151815260200191508051906020019080838360005b83811015610490578082015181840152602081019050610475565b50505050905090810190601f1680156104bd5780820380516001836020036101000a031916815260200191505b5084810383528c818151815260200191508051906020019080838360005b838110156104f65780820151818401526020810190506104db565b50505050905090810190601f1680156105235780820380516001836020036101000a031916815260200191505b5084810382528a818151815260200191508051906020019080838360005b8381101561055c578082015181840152602081019050610541565b50505050905090810190601f1680156105895780820380516001836020036101000a031916815260200191505b509d505050505050505050505050505060405180910390f35b6105aa611c02565b6040518082815260200191505060405180910390f35b61062c600480360360608110156105d657600080fd5b81019080803573ffffffffffffffffffffffffffffffffffffffff169060200190929190803573ffffffffffffffffffffffffffffffffffffffff16906020019092919080359060200190929190505050611c08565b604051808215151515815260200191505060405180910390f35b610870600480360360e081101561065c57600080fd5b810190808035906020019064010000000081111561067957600080fd5b82018360208201111561068b57600080fd5b803590602001918460018302840111640100000000831117156106ad57600080fd5b91908080601f016020809104026020016040519081016040528093929190818152602001838380828437600081840152601f19601f820116905080830192505050505050509192919290803573ffffffffffffffffffffffffffffffffffffffff1690602001909291908035906020019064010000000081111561073057600080fd5b82018360208201111561074257600080fd5b8035906020019184600183028401116401000000008311171561076457600080fd5b91908080601f016020809104026020016040519081016040528093929190818152602001838380828437600081840152601f19601f82011690508083019250505050505050919291929080359060200190929190803590602001906401000000008111156107d157600080fd5b8201836020820111156107e357600080fd5b8035906020019184600183028401116401000000008311171561080557600080fd5b91908080601f016020809104026020016040519081016040528093929190818152602001838380828437600081840152601f19601f820116905080830192505050505050509192919290803515159060200190929190803560ff169060200190929190505050611f42565b6040518082815260200191505060405180910390f35b61088e6128dd565b604051808260ff1660ff16815260200191505060405180910390f35b610963600480360360208110156108c057600080fd5b81019080803590602001906401000000008111156108dd57600080fd5b8201836020820111156108ef57600080fd5b8035906020019184600183028401116401000000008311171561091157600080fd5b91908080601f016020809104026020016040519081016040528093929190818152602001838380828437600081840152601f19601f8201169050808301925050505050505091929192905050506128f0565b604051808215151515815260200191505060405180910390f35b610a366004803603602081101561099357600080fd5b81019080803590602001906401000000008111156109b057600080fd5b8201836020820111156109c257600080fd5b803590602001918460018302840111640100000000831117156109e457600080fd5b91908080601f016020809104026020016040519081016040528093929190818152602001838380828437600081840152601f19601f820116905080830192505050505050509192919290505050612a04565b604051808215151515815260200191505060405180910390f35b610a9260048036036020811015610a6657600080fd5b81019080803573ffffffffffffffffffffffffffffffffffffffff169060200190929190505050612b18565b604051808215151515815260200191505060405180910390f35b610b6560048036036020811015610ac257600080fd5b8101908080359060200190640100000000811115610adf57600080fd5b820183602082011115610af157600080fd5b80359060200191846001830284011164010000000083111715610b1357600080fd5b91908080601f016020809104026020016040519081016040528093929190818152602001838380828437600081840152601f19601f820116905080830192505050505050509192919290505050612be0565b6040518080602001828103825283818151815260200191508051906020019080838360005b83811015610ba5578082015181840152602081019050610b8a565b50505050905090810190601f168015610bd25780820380516001836020036101000a031916815260200191505b509250505060405180910390f35b610d67600480360360a0811015610bf657600080fd5b8101908080359060200190640100000000811115610c1357600080fd5b820183602082011115610c2557600080fd5b80359060200191846001830284011164010000000083111715610c4757600080fd5b91908080601f016020809104026020016040519081016040528093929190818152602001838380828437600081840152601f19601f820116905080830192505050505050509192919290803573ffffffffffffffffffffffffffffffffffffffff1690602001909291908035906020019092919080359060200190640100000000811115610cd457600080fd5b820183602082011115610ce657600080fd5b80359060200191846001830284011164010000000083111715610d0857600080fd5b91908080601f016020809104026020016040519081016040528093929190818152602001838380828437600081840152601f19601f820116905080830192505050505050509192919290803560ff1690602001909291905050506131ba565b6040518080602001828103825283818151815260200191508051906020019080838360005b83811015610da7578082015181840152602081019050610d8c565b50505050905090810190601f168015610dd45780820380516001836020036101000a031916815260200191505b509250505060405180910390f35b610e2460048036036020811015610df857600080fd5b81019080803573ffffffffffffffffffffffffffffffffffffffff169060200190929190505050613b07565b6040518082815260200191505060405180910390f35b610e42613b1f565b604051808273ffffffffffffffffffffffffffffffffffffffff1673ffffffffffffffffffffffffffffffffffffffff16815260200191505060405180910390f35b610e8c613b45565b6040518080602001828103825283818151815260200191508051906020019080838360005b83811015610ecc578082015181840152602081019050610eb1565b50505050905090810190601f168015610ef95780820380516001836020036101000a031916815260200191505b509250505060405180910390f35b610f5360048036036040811015610f1d57600080fd5b81019080803573ffffffffffffffffffffffffffffffffffffffff16906020019092919080359060200190929190505050613be3565b604051808215151515815260200191505060405180910390f35b61102660048036036020811015610f8357600080fd5b8101908080359060200190640100000000811115610fa057600080fd5b820183602082011115610fb257600080fd5b80359060200191846001830284011164010000000083111715610fd457600080fd5b91908080601f016020809104026020016040519081016040528093929190818152602001838380828437600081840152601f19601f820116905080830192505050505050509192919290505050613de9565b6040518080602001828103825283818151815260200191508051906020019080838360005b8381101561106657808201518184015260208101905061104b565b50505050905090810190601f1680156110935780820380516001836020036101000a031916815260200191505b509250505060405180910390f35b611211600480360360608110156110b757600080fd5b81019080803590602001906401000000008111156110d457600080fd5b8201836020820111156110e657600080fd5b8035906020019184600183028401116401000000008311171561110857600080fd5b91908080601f016020809104026020016040519081016040528093929190818152602001838380828437600081840152601f19601f8201169050808301925050505050505091929192908035906020019064010000000081111561116b57600080fd5b82018360208201111561117d57600080fd5b8035906020019184600183028401116401000000008311171561119f57600080fd5b91908080601f016020809104026020016040519081016040528093929190818152602001838380828437600081840152601f19601f820116905080830192505050505050509192919290803573ffffffffffffffffffffffffffffffffffffffff169060200190929190505050613eaf565b604051808215151515815260200191505060405180910390f35b611233614107565b6040518082815260200191505060405180910390f35b6113b96004803603606081101561125f57600080fd5b810190808035906020019064010000000081111561127c57600080fd5b82018360208201111561128e57600080fd5b803590602001918460018302840111640100000000831117156112b057600080fd5b91908080601f016020809104026020016040519081016040528093929190818152602001838380828437600081840152601f19601f8201169050808301925050505050505091929192908035906020019064010000000081111561131357600080fd5b82018360208201111561132557600080fd5b8035906020019184600183028401116401000000008311171561134757600080fd5b91908080601f016020809104026020016040519081016040528093929190818152602001838380828437600081840152601f19601f820116905080830192505050505050509192919290803573ffffffffffffffffffffffffffffffffffffffff16906020019092919050505061410d565b604051808215151515815260200191505060405180910390f35b61148c600480360360208110156113e957600080fd5b810190808035906020019064010000000081111561140657600080fd5b82018360208201111561141857600080fd5b8035906020019184600183028401116401000000008311171561143a57600080fd5b91908080601f016020809104026020016040519081016040528093929190818152602001838380828437600081840152601f19601f820116905080830192505050505050509192919290505050614568565b604051808273ffffffffffffffffffffffffffffffffffffffff1673ffffffffffffffffffffffffffffffffffffffff16815260200191505060405180910390f35b6114fa600480360360208110156114e457600080fd5b81019080803590602001909291905050506145b1565b6040518080602001828103825283818151815260200191508051906020019080838360005b8381101561153a57808201518184015260208101905061151f565b50505050905090810190601f1680156115675780820380516001836020036101000a031916815260200191505b509250505060405180910390f35b61162e6004803603602081101561158b57600080fd5b81019080803590602001906401000000008111156115a857600080fd5b8201836020820111156115ba57600080fd5b803590602001918460018302840111640100000000831117156115dc57600080fd5b91908080601f016020809104026020016040519081016040528093929190818152602001838380828437600081840152601f19601f82011690508083019250505050505050919291929050505061466a565b604051808873ffffffffffffffffffffffffffffffffffffffff1673ffffffffffffffffffffffffffffffffffffffff168152602001878152602001806020018060200186600681111561167e57fe5b60ff16815260200185815260200184151515158152602001838103835288818151815260200191508051906020019080838360005b838110156116ce5780820151818401526020810190506116b3565b50505050905090810190601f1680156116fb5780820380516001836020036101000a031916815260200191505b50838103825287818151815260200191508051906020019080838360005b83811015611734578082015181840152602081019050611719565b50505050905090810190601f1680156117615780820380516001836020036101000a031916815260200191505b50995050505050505050505060405180910390f35b60028054600181600116156101000203166002900480601f01602080910402602001604051908101604052809291908181526020018280546001816001161561010002031660029004801561180c5780601f106117e15761010080835404028352916020019161180c565b820191906000526020600020905b8154815290600101906020018083116117ef57829003601f168201915b505050505081565b600081600660003373ffffffffffffffffffffffffffffffffffffffff1673ffffffffffffffffffffffffffffffffffffffff16815260200190815260200160002060008573ffffffffffffffffffffffffffffffffffffffff1673ffffffffffffffffffffffffffffffffffffffff168152602001908152602001600020819055508273ffffffffffffffffffffffffffffffffffffffff163373ffffffffffffffffffffffffffffffffffffffff167f8c5be1e5ebec7d5bd14f71427d1e84f3dd0314c0f7b2291e5b200ac8c7c3b925846040518082815260200191505060405180910390a36001905092915050565b6000600d826040518082805190602001908083835b6020831061193e578051825260208201915060208101905060208303925061191b565b6001836020036101000a038019825116818451168082178552505050505050905001915050908152602001604051809103902060070160019054906101000a900460ff169050919050565b600d81805160208101820180518482526020830160208501208183528095505050505050600091509050806000018054600181600116156101000203166002900480601f016020809104026020016040519081016040528092919081815260200182805460018160011615610100020316600290048015611a4b5780601f10611a2057610100808354040283529160200191611a4b565b820191906000526020600020905b815481529060010190602001808311611a2e57829003601f168201915b5050505050908060010160009054906101000a900473ffffffffffffffffffffffffffffffffffffffff1690806002018054600181600116156101000203166002900480601f016020809104026020016040519081016040528092919081815260200182805460018160011615610100020316600290048015611b0f5780601f10611ae457610100808354040283529160200191611b0f565b820191906000526020600020905b815481529060010190602001808311611af257829003601f168201915b505050505090806003015490806004018054600181600116156101000203166002900480601f016020809104026020016040519081016040528092919081815260200182805460018160011615610100020316600290048015611bb35780601f10611b8857610100808354040283529160200191611bb3565b820191906000526020600020905b815481529060010190602001808311611b9657829003601f168201915b5050505050908060050160009054906101000a900460ff16908060060154908060070160009054906101000a900460ff16908060070160019054906101000a900460ff1690806008015490508a565b60055481565b60008060008573ffffffffffffffffffffffffffffffffffffffff1673ffffffffffffffffffffffffffffffffffffffff16815260200190815260200160002054821115611cbe576040517f08c379a00000000000000000000000000000000000000000000000000000000081526004018080602001828103825260148152602001807f42616c616e63653a204e6f204f766572666c6f7700000000000000000000000081525060200191505060405180910390fd5b600660008573ffffffffffffffffffffffffffffffffffffffff1673ffffffffffffffffffffffffffffffffffffffff16815260200190815260200160002060003373ffffffffffffffffffffffffffffffffffffffff1673ffffffffffffffffffffffffffffffffffffffff16815260200190815260200160002054821115611db0576040517f08c379a00000000000000000000000000000000000000000000000000000000081526004018080602001828103825260168152602001807f416c6c6f77616e63653a204e6f204f766572666c6f770000000000000000000081525060200191505060405180910390fd5b816000808673ffffffffffffffffffffffffffffffffffffffff1673ffffffffffffffffffffffffffffffffffffffff16815260200190815260200160002060008282540392505081905550816000808573ffffffffffffffffffffffffffffffffffffffff1673ffffffffffffffffffffffffffffffffffffffff1681526020019081526020016000206000828254019250508190555081600660008673ffffffffffffffffffffffffffffffffffffffff1673ffffffffffffffffffffffffffffffffffffffff16815260200190815260200160002060003373ffffffffffffffffffffffffffffffffffffffff1673ffffffffffffffffffffffffffffffffffffffff168152602001908152602001600020600082825403925050819055508273ffffffffffffffffffffffffffffffffffffffff168473ffffffffffffffffffffffffffffffffffffffff167fddf252ad1be2c89b69c2b068fc378daa952ba7f163c4a11628f55a4df523b3ef846040518082815260200191505060405180910390a3600190509392505050565b6000611f4d88612a04565b15611fa3576040517f08c379a00000000000000000000000000000000000000000000000000000000081526004018080602001828103825260228152602001806154c26022913960400191505060405180910390fd5b611fac87612b18565b1561201f576040517f08c379a000000000000000000000000000000000000000000000000000000000815260040180806020018281038252601c8152602001807f57696c6c206e6f7420616c6c6f77206475706c6963617465204944730000000081525060200191505060405180910390fd5b6001600a8890806001815401808255809150509060018203906000526020600020016000909192909190916101000a81548173ffffffffffffffffffffffffffffffffffffffff021916908373ffffffffffffffffffffffffffffffffffffffff16021790555003600f60008973ffffffffffffffffffffffffffffffffffffffff1673ffffffffffffffffffffffffffffffffffffffff1681526020019081526020016000206008018190555086600d896040518082805190602001908083835b6020831061210457805182526020820191506020810190506020830392506120e1565b6001836020036101000a038019825116818451168082178552505050505050905001915050908152602001604051809103902060010160006101000a81548173ffffffffffffffffffffffffffffffffffffffff021916908373ffffffffffffffffffffffffffffffffffffffff16021790555084600d896040518082805190602001908083835b602083106121af578051825260208201915060208101905060208303925061218c565b6001836020036101000a03801982511681845116808217855250505050505090500191505090815260200160405180910390206003018190555085600d896040518082805190602001908083835b6020831061222057805182526020820191506020810190506020830392506121fd565b6001836020036101000a0380198251168184511680821785525050505050509050019150509081526020016040518091039020600201908051906020019061226992919061527f565b5083600d896040518082805190602001908083835b602083106122a1578051825260208201915060208101905060208303925061227e565b6001836020036101000a038019825116818451168082178552505050505050905001915050908152602001604051809103902060040190805190602001906122ea92919061527f565b5082600d896040518082805190602001908083835b6020831061232257805182526020820191506020810190506020830392506122ff565b6001836020036101000a038019825116818451168082178552505050505050905001915050908152602001604051809103902060050160006101000a81548160ff0219169083151502179055506001151583151514156123f3576004600d896040518082805190602001908083835b602083106123b45780518252602082019150602081019050602083039250612391565b6001836020036101000a038019825116818451168082178552505050505050905001915050908152602001604051809103902060060181905550612466565b6002600d896040518082805190602001908083835b6020831061242b5780518252602082019150602081019050602083039250612408565b6001836020036101000a0380198251168184511680821785525050505050509050019150509081526020016040518091039020600601819055505b81600d896040518082805190602001908083835b6020831061249d578051825260208201915060208101905060208303925061247a565b6001836020036101000a038019825116818451168082178552505050505050905001915050908152602001604051809103902060070160016101000a81548160ff021916908360068111156124ee57fe5b02179055506000600d896040518082805190602001908083835b6020831061252b5780518252602082019150602081019050602083039250612508565b6001836020036101000a038019825116818451168082178552505050505050905001915050908152602001604051809103902060070160006101000a81548160ff021916908315150217905550600160088990806001815401808255809150509060018203906000526020600020016000909192909190915090805190602001906125b792919061527f565b5003600d896040518082805190602001908083835b602083106125ef57805182526020820191506020810190506020830392506125cc565b6001836020036101000a0380198251168184511680821785525050505050509050019150509081526020016040518091039020600801819055507fac5059d06835b5de8c3f846582a7f717fadc253b7b579e7d99d13f2c5b939db88888888787600d8e6040518082805190602001908083835b602083106126855780518252602082019150602081019050602083039250612662565b6001836020036101000a038019825116818451168082178552505050505050905001915050908152602001604051809103902060060154600d8f6040518082805190602001908083835b602083106126f257805182526020820191506020810190506020830392506126cf565b6001836020036101000a03801982511681845116808217855250505050505090500191505090815260200160405180910390206008015460405180806020018873ffffffffffffffffffffffffffffffffffffffff1673ffffffffffffffffffffffffffffffffffffffff16815260200180602001806020018715151515815260200186815260200185815260200184810384528b818151815260200191508051906020019080838360005b838110156127b957808201518184015260208101905061279e565b50505050905090810190601f1680156127e65780820380516001836020036101000a031916815260200191505b50848103835289818151815260200191508051906020019080838360005b8381101561281f578082015181840152602081019050612804565b50505050905090810190601f16801561284c5780820380516001836020036101000a031916815260200191505b50848103825288818151815260200191508051906020019080838360005b8381101561288557808201518184015260208101905061286a565b50505050905090810190601f1680156128b25780820380516001836020036101000a031916815260200191505b509a505050505050505050505060405180910390a16001600880549050039050979650505050505050565b600460009054906101000a900460ff1681565b600080600980549050141561290857600090506129ff565b6009600e836040518082805190602001908083835b60208310612940578051825260208201915060208101905060208303925061291d565b6001836020036101000a0380198251168184511680821785525050505050509050019150509081526020016040518091039020600501548154811061298157fe5b9060005260206000200160405180828054600181600116156101000203166002900480156129e65780601f106129c45761010080835404028352918201916129e6565b820191906000526020600020905b8154815290600101906020018083116129d2575b5050915050604051809103902082805190602001201490505b919050565b6000806008805490501415612a1c5760009050612b13565b6008600d836040518082805190602001908083835b60208310612a545780518252602082019150602081019050602083039250612a31565b6001836020036101000a03801982511681845116808217855250505050505090500191505090815260200160405180910390206008015481548110612a9557fe5b906000526020600020016040518082805460018160011615610100020316600290048015612afa5780601f10612ad8576101008083540402835291820191612afa565b820191906000526020600020905b815481529060010190602001808311612ae6575b5050915050604051809103902082805190602001201490505b919050565b600080600a805490501415612b305760009050612bdb565b600a600f60008473ffffffffffffffffffffffffffffffffffffffff1673ffffffffffffffffffffffffffffffffffffffff1681526020019081526020016000206008015481548110612b7f57fe5b9060005260206000200160009054906101000a900473ffffffffffffffffffffffffffffffffffffffff1673ffffffffffffffffffffffffffffffffffffffff168273ffffffffffffffffffffffffffffffffffffffff161490505b919050565b606060006006811115612bef57fe5b600d836040518082805190602001908083835b60208310612c255780518252602082019150602081019050602083039250612c02565b6001836020036101000a038019825116818451168082178552505050505050905001915050908152602001604051809103902060070160019054906101000a900460ff166006811115612c7457fe5b1415612cb7576040518060400160405280600481526020017f466f6f640000000000000000000000000000000000000000000000000000000081525090506131b5565b60016006811115612cc457fe5b600d836040518082805190602001908083835b60208310612cfa5780518252602082019150602081019050602083039250612cd7565b6001836020036101000a038019825116818451168082178552505050505050905001915050908152602001604051809103902060070160019054906101000a900460ff166006811115612d4957fe5b1415612d8c576040518060400160405280600881526020017f436c6f7468696e6700000000000000000000000000000000000000000000000081525090506131b5565b60026006811115612d9957fe5b600d836040518082805190602001908083835b60208310612dcf5780518252602082019150602081019050602083039250612dac565b6001836020036101000a038019825116818451168082178552505050505050905001915050908152602001604051809103902060070160019054906101000a900460ff166006811115612e1e57fe5b1415612e61576040518060400160405280600981526020017f4675726e6974757265000000000000000000000000000000000000000000000081525090506131b5565b60036006811115612e6e57fe5b600d836040518082805190602001908083835b60208310612ea45780518252602082019150602081019050602083039250612e81565b6001836020036101000a038019825116818451168082178552505050505050905001915050908152602001604051809103902060070160019054906101000a900460ff166006811115612ef357fe5b1415612f36576040518060400160405280600981526020017f456475636174696f6e000000000000000000000000000000000000000000000081525090506131b5565b60046006811115612f4357fe5b600d836040518082805190602001908083835b60208310612f795780518252602082019150602081019050602083039250612f56565b6001836020036101000a038019825116818451168082178552505050505050905001915050908152602001604051809103902060070160019054906101000a900460ff166006811115612fc857fe5b141561300b576040518060400160405280600981526020017f5472616e73706f7274000000000000000000000000000000000000000000000081525090506131b5565b6005600681111561301857fe5b600d836040518082805190602001908083835b6020831061304e578051825260208201915060208101905060208303925061302b565b6001836020036101000a038019825116818451168082178552505050505050905001915050908152602001604051809103902060070160019054906101000a900460ff16600681111561309d57fe5b14156130e0576040518060400160405280600781526020017f4d65646963616c0000000000000000000000000000000000000000000000000081525090506131b5565b6006808111156130ec57fe5b600d836040518082805190602001908083835b6020831061312257805182526020820191506020810190506020830392506130ff565b6001836020036101000a038019825116818451168082178552505050505050905001915050908152602001604051809103902060070160019054906101000a900460ff16600681111561317157fe5b14156131b4576040518060400160405280600781526020017f46756e64696e670000000000000000000000000000000000000000000000000081525090506131b5565b5b919050565b60606131c5866128f0565b1561321b576040517f08c379a00000000000000000000000000000000000000000000000000000000081526004018080602001828103825260228152602001806154e46022913960400191505060405180910390fd5b61322485612b18565b15613297576040517f08c379a000000000000000000000000000000000000000000000000000000000815260040180806020018281038252601c8152602001807f57696c6c206e6f7420616c6c6f77206475706c6963617465204944730000000081525060200191505060405180910390fd5b6001600a8690806001815401808255809150509060018203906000526020600020016000909192909190916101000a81548173ffffffffffffffffffffffffffffffffffffffff021916908373ffffffffffffffffffffffffffffffffffffffff16021790555003600f60008773ffffffffffffffffffffffffffffffffffffffff1673ffffffffffffffffffffffffffffffffffffffff1681526020019081526020016000206008018190555084600e876040518082805190602001908083835b6020831061337c5780518252602082019150602081019050602083039250613359565b6001836020036101000a038019825116818451168082178552505050505050905001915050908152602001604051809103902060010160006101000a81548173ffffffffffffffffffffffffffffffffffffffff021916908373ffffffffffffffffffffffffffffffffffffffff160217905550600e866040518082805190602001908083835b602083106134265780518252602082019150602081019050602083039250613403565b6001836020036101000a038019825116818451168082178552505050505050905001915050908152602001604051809103902060010160009054906101000a900473ffffffffffffffffffffffffffffffffffffffff16600c876040518082805190602001908083835b602083106134b35780518252602082019150602081019050602083039250613490565b6001836020036101000a038019825116818451168082178552505050505050905001915050908152602001604051809103902060006101000a81548173ffffffffffffffffffffffffffffffffffffffff021916908373ffffffffffffffffffffffffffffffffffffffff16021790555083600e876040518082805190602001908083835b6020831061355b5780518252602082019150602081019050602083039250613538565b6001836020036101000a03801982511681845116808217855250505050505090500191505090815260200160405180910390206002018190555082600e876040518082805190602001908083835b602083106135cc57805182526020820191506020810190506020830392506135a9565b6001836020036101000a0380198251168184511680821785525050505050509050019150509081526020016040518091039020600301908051906020019061361592919061527f565b5081600e876040518082805190602001908083835b6020831061364d578051825260208201915060208101905060208303925061362a565b6001836020036101000a038019825116818451168082178552505050505050905001915050908152602001604051809103902060040160006101000a81548160ff0219169083600681111561369e57fe5b0217905550600160098790806001815401808255809150509060018203906000526020600020016000909192909190915090805190602001906136e292919061527f565b5003600e876040518082805190602001908083835b6020831061371a57805182526020820191506020810190506020830392506136f7565b6001836020036101000a038019825116818451168082178552505050505050905001915050908152602001604051809103902060050181905550606060008090505b600880549050811015613948576138216008828154811061377957fe5b906000526020600020018054600181600116156101000203166002900480601f0160208091040260200160405190810160405280929190818152602001828054600181600116156101000203166002900480156138175780601f106137ec57610100808354040283529160200191613817565b820191906000526020600020905b8154815290600101906020018083116137fa57829003601f168201915b5050505050611906565b600681111561382c57fe5b84600681111561383857fe5b141561393b576138f7826008838154811061384f57fe5b906000526020600020018054600181600116156101000203166002900480601f0160208091040260200160405190810160405280929190818152602001828054600181600116156101000203166002900480156138ed5780601f106138c2576101008083540402835291602001916138ed565b820191906000526020600020905b8154815290600101906020018083116138d057829003601f168201915b5050505050614be7565b9150613938826040518060400160405280600181526020017f2c00000000000000000000000000000000000000000000000000000000000000815250614be7565b91505b808060010191505061375c565b507fb9eb4d10aa4154b713eef3ee54f8b3a8118a83ce1cce36a370fec5735147f101878786600e8b6040518082805190602001908083835b602083106139a35780518252602082019150602081019050602083039250613980565b6001836020036101000a03801982511681845116808217855250505050505090500191505090815260200160405180910390206005015460405180806020018573ffffffffffffffffffffffffffffffffffffffff1673ffffffffffffffffffffffffffffffffffffffff16815260200180602001848152602001838103835287818151815260200191508051906020019080838360005b83811015613a56578082015181840152602081019050613a3b565b50505050905090810190601f168015613a835780820380516001836020036101000a031916815260200191505b50838103825285818151815260200191508051906020019080838360005b83811015613abc578082015181840152602081019050613aa1565b50505050905090810190601f168015613ae95780820380516001836020036101000a031916815260200191505b50965050505050505060405180910390a18091505095945050505050565b60006020528060005260406000206000915090505481565b600160009054906101000a900473ffffffffffffffffffffffffffffffffffffffff1681565b60038054600181600116156101000203166002900480601f016020809104026020016040519081016040528092919081815260200182805460018160011615610100020316600290048015613bdb5780601f10613bb057610100808354040283529160200191613bdb565b820191906000526020600020905b815481529060010190602001808311613bbe57829003601f168201915b505050505081565b600081600080600160009054906101000a900473ffffffffffffffffffffffffffffffffffffffff1673ffffffffffffffffffffffffffffffffffffffff1673ffffffffffffffffffffffffffffffffffffffff168152602001908152602001600020541015613c9e576040517f08c379a000000000000000000000000000000000000000000000000000000000815260040180806020018281038252602a815260200180615506602a913960400191505060405180910390fd5b81600080600160009054906101000a900473ffffffffffffffffffffffffffffffffffffffff1673ffffffffffffffffffffffffffffffffffffffff1673ffffffffffffffffffffffffffffffffffffffff16815260200190815260200160002060008282540392505081905550816000808573ffffffffffffffffffffffffffffffffffffffff1673ffffffffffffffffffffffffffffffffffffffff168152602001908152602001600020600082825401925050819055508273ffffffffffffffffffffffffffffffffffffffff16600160009054906101000a900473ffffffffffffffffffffffffffffffffffffffff1673ffffffffffffffffffffffffffffffffffffffff167fddf252ad1be2c89b69c2b068fc378daa952ba7f163c4a11628f55a4df523b3ef846040518082815260200191505060405180910390a36001905092915050565b600b818051602081018201805184825260208301602085012081835280955050505050506000915090508054600181600116156101000203166002900480601f016020809104026020016040519081016040528092919081815260200182805460018160011615610100020316600290048015613ea75780601f10613e7c57610100808354040283529160200191613ea7565b820191906000526020600020905b815481529060010190602001808311613e8a57829003601f168201915b505050505081565b6000600754421115613f0c576040517f08c379a000000000000000000000000000000000000000000000000000000000815260040180806020018281038252603681526020018061548c6036913960400191505060405180910390fd5b6001151561401b600b866040518082805190602001908083835b60208310613f495780518252602082019150602081019050602083039250613f26565b6001836020036101000a03801982511681845116808217855250505050505090500191505090815260200160405180910390208054600181600116156101000203166002900480601f0160208091040260200160405190810160405280929190818152602001828054600181600116156101000203166002900480156140105780601f10613fe557610100808354040283529160200191614010565b820191906000526020600020905b815481529060010190602001808311613ff357829003601f168201915b505050505085614d30565b151514614073576040517f08c379a000000000000000000000000000000000000000000000000000000000815260040180806020018281038252602f815260200180615530602f913960400191505060405180910390fd5b6140e982600d866040518082805190602001908083835b602083106140ad578051825260208201915060208101905060208303925061408a565b6001836020036101000a038019825116818451168082178552505050505050905001915050908152602001604051809103902060060154613be3565b506140f384614d5e565b6140fc84614f8b565b600190509392505050565b60075481565b60008173ffffffffffffffffffffffffffffffffffffffff16600c846040518082805190602001908083835b6020831061415c5780518252602082019150602081019050602083039250614139565b6001836020036101000a038019825116818451168082178552505050505050905001915050908152602001604051809103902060009054906101000a900473ffffffffffffffffffffffffffffffffffffffff1673ffffffffffffffffffffffffffffffffffffffff161461421c576040517f08c379a00000000000000000000000000000000000000000000000000000000081526004018080602001828103825260318152602001806154376031913960400191505060405180910390fd5b600e836040518082805190602001908083835b60208310614252578051825260208201915060208101905060208303925061422f565b6001836020036101000a038019825116818451168082178552505050505050905001915050908152602001604051809103902060040160009054906101000a900460ff1660068111156142a157fe5b600d856040518082805190602001908083835b602083106142d757805182526020820191506020810190506020830392506142b4565b6001836020036101000a038019825116818451168082178552505050505050905001915050908152602001604051809103902060070160019054906101000a900460ff16600681111561432657fe5b1461437c576040517f08c379a00000000000000000000000000000000000000000000000000000000081526004018080602001828103825260258152602001806154126025913960400191505060405180910390fd5b60001515600d856040518082805190602001908083835b602083106143b65780518252602082019150602081019050602083039250614393565b6001836020036101000a038019825116818451168082178552505050505050905001915050908152602001604051809103902060070160009054906101000a900460ff16151514614452576040517f08c379a00000000000000000000000000000000000000000000000000000000081526004018080602001828103825260218152602001806153f16021913960400191505060405180910390fd5b6102d0420160078190555082600b856040518082805190602001908083835b602083106144945780518252602082019150602081019050602083039250614471565b6001836020036101000a038019825116818451168082178552505050505050905001915050908152602001604051809103902090805190602001906144da92919061527f565b506001600d856040518082805190602001908083835b6020831061451357805182526020820191506020810190506020830392506144f0565b6001836020036101000a038019825116818451168082178552505050505050905001915050908152602001604051809103902060070160006101000a81548160ff021916908315150217905590509392505050565b600c818051602081018201805184825260208301602085012081835280955050505050506000915054906101000a900473ffffffffffffffffffffffffffffffffffffffff1681565b600881815481106145be57fe5b906000526020600020016000915090508054600181600116156101000203166002900480601f0160208091040260200160405190810160405280929190818152602001828054600181600116156101000203166002900480156146625780601f1061463757610100808354040283529160200191614662565b820191906000526020600020905b81548152906001019060200180831161464557829003601f168201915b505050505081565b600080606080600080600061467e88612a04565b6146d3576040517f08c379a00000000000000000000000000000000000000000000000000000000081526004018080602001828103825260248152602001806154686024913960400191505060405180910390fd5b600754421115614763576000600d896040518082805190602001908083835b6020831061471557805182526020820191506020810190506020830392506146f2565b6001836020036101000a038019825116818451168082178552505050505050905001915050908152602001604051809103902060070160006101000a81548160ff0219169083151502179055505b600d886040518082805190602001908083835b602083106147995780518252602082019150602081019050602083039250614776565b6001836020036101000a038019825116818451168082178552505050505050905001915050908152602001604051809103902060010160009054906101000a900473ffffffffffffffffffffffffffffffffffffffff16600d896040518082805190602001908083835b602083106148265780518252602082019150602081019050602083039250614803565b6001836020036101000a038019825116818451168082178552505050505050905001915050908152602001604051809103902060030154600d8a6040518082805190602001908083835b602083106148935780518252602082019150602081019050602083039250614870565b6001836020036101000a0380198251168184511680821785525050505050509050019150509081526020016040518091039020600401600d8b6040518082805190602001908083835b602083106148ff57805182526020820191506020810190506020830392506148dc565b6001836020036101000a0380198251168184511680821785525050505050509050019150509081526020016040518091039020600201600d8c6040518082805190602001908083835b6020831061496b5780518252602082019150602081019050602083039250614948565b6001836020036101000a038019825116818451168082178552505050505050905001915050908152602001604051809103902060070160019054906101000a900460ff16600d8d6040518082805190602001908083835b602083106149e557805182526020820191506020810190506020830392506149c2565b6001836020036101000a038019825116818451168082178552505050505050905001915050908152602001604051809103902060060154600d8e6040518082805190602001908083835b60208310614a525780518252602082019150602081019050602083039250614a2f565b6001836020036101000a038019825116818451168082178552505050505050905001915050908152602001604051809103902060070160009054906101000a900460ff16848054600181600116156101000203166002900480601f016020809104026020016040519081016040528092919081815260200182805460018160011615610100020316600290048015614b2b5780601f10614b0057610100808354040283529160200191614b2b565b820191906000526020600020905b815481529060010190602001808311614b0e57829003601f168201915b50505050509450838054600181600116156101000203166002900480601f016020809104026020016040519081016040528092919081815260200182805460018160011615610100020316600290048015614bc75780601f10614b9c57610100808354040283529160200191614bc7565b820191906000526020600020905b815481529060010190602001808311614baa57829003601f168201915b505050505093509650965096509650965096509650919395979092949650565b6060808390506060839050606081518351016040519080825280601f01601f191660200182016040528015614c2b5781602001600182028038833980820191505090505b5090506060819050600080905060008090505b8551811015614cac57858181518110614c5357fe5b602001015160f81c60f81b838380600101945081518110614c7057fe5b60200101907effffffffffffffffffffffffffffffffffffffffffffffffffffffffffffff1916908160001a9053508080600101915050614c3e565b5060008090505b8451811015614d2157848181518110614cc857fe5b602001015160f81c60f81b838380600101945081518110614ce557fe5b60200101907effffffffffffffffffffffffffffffffffffffffffffffffffffffffffffff1916908160001a9053508080600101915050614cb3565b50819550505050505092915050565b60008151835114614d445760009050614d58565b818051906020012083805190602001201490505b92915050565b614d6781612a04565b614dbc576040517f08c379a00000000000000000000000000000000000000000000000000000000081526004018080602001828103825260248152602001806154686024913960400191505060405180910390fd5b6000600f6000600d846040518082805190602001908083835b60208310614df85780518252602082019150602081019050602083039250614dd5565b6001836020036101000a038019825116818451168082178552505050505050905001915050908152602001604051809103902060010160009054906101000a900473ffffffffffffffffffffffffffffffffffffffff1673ffffffffffffffffffffffffffffffffffffffff1673ffffffffffffffffffffffffffffffffffffffff1681526020019081526020016000206008015490506000600a6001600a805490500381548110614ea657fe5b9060005260206000200160009054906101000a900473ffffffffffffffffffffffffffffffffffffffff16905080600a8381548110614ee157fe5b9060005260206000200160006101000a81548173ffffffffffffffffffffffffffffffffffffffff021916908373ffffffffffffffffffffffffffffffffffffffff16021790555081600f60008373ffffffffffffffffffffffffffffffffffffffff1673ffffffffffffffffffffffffffffffffffffffff16815260200190815260200160002060080181905550600a805480919060019003614f8591906152ff565b50505050565b614f9481612a04565b614fe9576040517f08c379a00000000000000000000000000000000000000000000000000000000081526004018080602001828103825260248152602001806154686024913960400191505060405180910390fd5b6000600d826040518082805190602001908083835b602083106150215780518252602082019150602081019050602083039250614ffe565b6001836020036101000a0380198251168184511680821785525050505050509050019150509081526020016040518091039020600801549050606060086001600880549050038154811061507157fe5b906000526020600020018054600181600116156101000203166002900480601f01602080910402602001604051908101604052809291908181526020018280546001816001161561010002031660029004801561510f5780601f106150e45761010080835404028352916020019161510f565b820191906000526020600020905b8154815290600101906020018083116150f257829003601f168201915b50505050509050806008838154811061512457fe5b90600052602060002001908051906020019061514192919061527f565b5081600d826040518082805190602001908083835b602083106151795780518252602082019150602081019050602083039250615156565b6001836020036101000a03801982511681845116808217855250505050505090500191505090815260200160405180910390206008018190555060088054809190600190036151c8919061532b565b507f84422b9592d04e5b8a0f30e52982385d1621c71795d391311bb616a1e6258f0383600184604051808060200184151515158152602001838152602001828103825285818151815260200191508051906020019080838360005b8381101561523e578082015181840152602081019050615223565b50505050905090810190601f16801561526b5780820380516001836020036101000a031916815260200191505b5094505050505060405180910390a1505050565b828054600181600116156101000203166002900490600052602060002090601f016020900481019282601f106152c057805160ff19168380011785556152ee565b828001600101855582156152ee579182015b828111156152ed5782518255916020019190600101906152d2565b5b5090506152fb9190615357565b5090565b815481835581811115615326578183600052602060002091820191016153259190615357565b5b505050565b81548183558181111561535257818360005260206000209182019101615351919061537c565b5b505050565b61537991905b8082111561537557600081600090555060010161535d565b5090565b90565b6153a591905b808211156153a1576000818161539891906153a8565b50600101615382565b5090565b90565b50805460018160011615610100020316600290046000825580601f106153ce57506153ed565b601f0160209004906000526020600020908101906153ec9190615357565b5b5056fe436861726974792068617320616c7265616479206265656e2073656c656374656443617465676f7269657320646f206e6f74206d6174636820617070726f7072696174656c79436f6e74726163746f72207469746c6520646f6573206e6f74206d6174636820416464726573732070726f7669646564214368617269747920726571756573746564206973206e6f742077697468696e206c69737454696d6520746f20636f6d706c65746520726571756573742069732075702e20546f6b656e207265776172642072657665727465642157696c6c206e6f7420616c6c6f77206475706c69636174652043686172697469657357696c6c206e6f7420616c6c6f77206475706c696361746520537570706c6965727342616c616e6365206f66204f776e6572206973206e6f742067726561746572207468616e2056616c75654368617269747920776173206e6f742073656c656374656420627920436f6e74726163746f722070726f7669646564a265627a7a72315820275413d05c74236e4d0d304d3ff9d184085d10772e4d70bcbf2341295f3c3ac964736f6c63430005100032",
  "source": "pragma solidity 0.5.16;\n\ncontract SimpleERC20Token {\n    // Track how many tokens are owned by each address.\n    mapping(address => uint256) public balanceOf;\n    address public owner;\n\n    // Modify this section\n    string public name = \"Charity ERC20 Token\";\n    string public symbol = \"CTKN\";\n    uint8 public decimals = 18;\n    uint256 public totalSupply = 1000000 * (uint256(10)**decimals);\n\n    event Transfer(address indexed from, address indexed to, uint256 value);\n\n    constructor() public {\n        // Initially assign all tokens to the contract's creator.\n        owner = msg.sender;\n        balanceOf[owner] = totalSupply;\n        emit Transfer(address(0), owner, totalSupply);\n    }\n\n    function transfer(address to, uint256 value) public returns (bool success) {\n        require(\n            balanceOf[owner] >= value,\n            \"Balance of Owner is not greater than Value\"\n        );\n\n        balanceOf[owner] -= value; // deduct from sender's balance\n        balanceOf[to] += value; // add to recipient's balance\n        emit Transfer(owner, to, value);\n        return true;\n    }\n\n    event Approval(\n        address indexed owner,\n        address indexed spender,\n        uint256 value\n    );\n\n    mapping(address => mapping(address => uint256)) private allowance;\n\n    function approve(address spender, uint256 value)\n        public\n        returns (bool success)\n    {\n        allowance[msg.sender][spender] = value;\n        emit Approval(msg.sender, spender, value);\n        return true;\n    }\n\n    function transferFrom(\n        address from,\n        address to,\n        uint256 value\n    ) public returns (bool success) {\n        require(value <= balanceOf[from], \"Balance: No Overflow\");\n        require(value <= allowance[from][msg.sender], \"Allowance: No Overflow\");\n\n        balanceOf[from] -= value;\n        balanceOf[to] += value;\n        allowance[from][msg.sender] -= value;\n        emit Transfer(from, to, value);\n        return true;\n    }\n}\n\ncontract SupplyChain is SimpleERC20Token {\n    enum Category {\n        Food,\n        Clothing,\n        Furniture,\n        Education,\n        Transportation,\n        Medical,\n        Funding\n    }\n\n    struct Charity {\n        string charityName;\n        address ID;\n        string request;\n        uint256 members;\n        string primaryContact;\n        bool urgent;\n        uint256 tokenReward;\n        bool selected;\n        Category category;\n        uint256 index;\n    }\n\n    struct Supplier {\n        string supplierName;\n        address ID;\n        uint256 members;\n        string primaryContact;\n        Category category;\n        uint256 index;\n    }\n\n    uint256 public expires;\n    string[] public charityIndex;\n    string[] private supplierIndex;\n    address[] private addressIndex;\n\n    mapping(string => string) public char2Supp;\n    mapping(string => address) public supplierAddress;\n    mapping(string => Charity) public Charities;\n    mapping(string => Supplier) private Suppliers;\n    mapping(address => Charity) private Addresses;\n\n    event LogNewCharity(\n        string charityName,\n        address ID,\n        string request,\n        string primaryContact,\n        bool urgent,\n        uint256 tokenReward,\n        uint256 index\n    );\n    event LogNewSupplier(\n        string supplierName,\n        address ID,\n        string primaryContact,\n        uint256 index\n    );\n    event LogDeleteCharity(\n        string charityName,\n        bool completedRequest,\n        uint256 index\n    );\n\n    constructor() public {\n        // Initially assign all tokens to the contract's creator.\n        owner = msg.sender;\n    }\n\n    function isCharity(\n        string memory charity //USE for address TRUE mapping for allowing authorization\n    ) public view returns (bool isIndeed) {\n        if (charityIndex.length == 0) return false;\n\n        return\n            keccak256(bytes(charity)) ==\n            keccak256(bytes(charityIndex[Charities[charity].index]));\n    }\n\n    function isSupplier(string memory supplier)\n        public\n        view\n        returns (bool isIndeed)\n    {\n        if (supplierIndex.length == 0) return false;\n\n        return\n            keccak256(bytes(supplier)) ==\n            keccak256(bytes(supplierIndex[Suppliers[supplier].index]));\n    }\n\n    function isAddress(address ID) public view returns (bool isIndeed) {\n        if (addressIndex.length == 0) return false;\n\n        return ((ID) == (addressIndex[Addresses[ID].index]));\n    }\n\n    function addCharity(\n        string memory charityName,\n        address ID,\n        string memory request,\n        uint256 members,\n        string memory primaryContact,\n        bool urgent,\n        Category category\n    ) public returns (uint256 index) {\n        require(!isCharity(charityName), \"Will not allow duplicate Charities\");\n        require(!isAddress(ID), \"Will not allow duplicate IDs\");\n\n        Addresses[ID].index = addressIndex.push(ID) - 1;\n        Charities[charityName].ID = ID;\n        Charities[charityName].members = members;\n        Charities[charityName].request = request;\n        Charities[charityName].primaryContact = primaryContact;\n        Charities[charityName].urgent = urgent;\n        if (urgent == true) {\n            Charities[charityName].tokenReward = 4;\n        } else {\n            Charities[charityName].tokenReward = 2;\n        }\n        Charities[charityName].category = category;\n        Charities[charityName].selected = false;\n        Charities[charityName].index = charityIndex.push(charityName) - 1;\n        emit LogNewCharity(\n            charityName,\n            ID,\n            request,\n            primaryContact,\n            urgent,\n            Charities[charityName].tokenReward,\n            Charities[charityName].index\n        );\n        return charityIndex.length - 1;\n    }\n\n    function requestType(string memory charity) public view returns (string memory) {\n        if (Charities[charity].category == Category.Food) {\n            return \"Food\";\n        } else if (Charities[charity].category == Category.Clothing) {\n            return \"Clothing\";\n        } else if (Charities[charity].category == Category.Furniture) {\n            return \"Furniture\";\n        } else if (Charities[charity].category == Category.Education) {\n            return \"Education\";\n        } else if (Charities[charity].category == Category.Transportation) {\n            return \"Transport\";\n        } else if (Charities[charity].category == Category.Medical) {\n            return \"Medical\";\n        } else if (Charities[charity].category == Category.Funding) {\n            return \"Funding\";\n        }\n    }\n\n    function getCharityInfo(string memory charity)\n        public\n        returns (\n            address ID,\n            uint256 members,\n            string memory primaryContact,\n            string memory request,\n            Category category,\n            uint256 tokenReward,\n            bool selected\n        )\n    {\n        require(isCharity(charity), \"Charity requested is not within list\");\n\n        if (now > expires) {\n            Charities[charity].selected = false;\n        }\n\n        return (\n            Charities[charity].ID,\n            Charities[charity].members,\n            Charities[charity].primaryContact,\n            Charities[charity].request,\n            Charities[charity].category,\n            Charities[charity].tokenReward,\n            Charities[charity].selected\n        );\n    }\n\n    function categoryMatch(string memory charity)\n        public\n        view\n        returns (Category)\n    {\n        return Charities[charity].category;\n    }\n\n    function addSupplier(\n        string memory supplier,\n        address ID,\n        uint256 members,\n        string memory primaryContact,\n        Category category\n    ) public returns (string memory charityList) {\n        require(!isSupplier(supplier), \"Will not allow duplicate Suppliers\");\n        require(!isAddress(ID), \"Will not allow duplicate IDs\");\n        Addresses[ID].index = addressIndex.push(ID) - 1;\n        Suppliers[supplier].ID = ID;\n        supplierAddress[supplier] = Suppliers[supplier].ID;\n        Suppliers[supplier].members = members;\n        Suppliers[supplier].primaryContact = primaryContact;\n        Suppliers[supplier].category = category;\n        Suppliers[supplier].index = supplierIndex.push(supplier) - 1;\n\n        string memory rString;\n\n        for (uint256 i = 0; i < charityIndex.length; i++) {\n            if (category == categoryMatch(charityIndex[i])) {\n                rString = strConcat(rString, charityIndex[i]);\n                rString = strConcat(rString, \",\");\n            }\n        }\n\n        emit LogNewSupplier(\n            supplier,\n            ID,\n            primaryContact,\n            Suppliers[supplier].index\n        );\n        return rString;\n    }\n\n    modifier timeCheck() {\n        require(\n            now <= expires,\n            \"Time to complete request is up. Token reward reverted!\"\n        );\n        _;\n    }\n\n    function selectCharity(\n        string memory charity,\n        string memory supplier,\n        address supplierID\n    ) public returns (bool isSelected) {\n        require(\n            supplierAddress[supplier] == supplierID,\n            \"Contractor title does not match Address provided!\"\n        );\n        require(\n            Charities[charity].category == Suppliers[supplier].category,\n            \"Categories do not match appropriately\"\n        );\n        require(\n            Charities[charity].selected == false,\n            \"Charity has already been selected\"\n        );\n        expires = now + 12 minutes;\n        char2Supp[charity] = supplier;\n        return Charities[charity].selected = true;\n    }\n\n    function deliverRequest(\n        string memory charity,\n        string memory supplier,\n        address supplierID\n    ) public timeCheck returns (bool completedRequest) {\n        require(\n            hashComp(char2Supp[charity], supplier) == true,\n            \"Charity was not selected by Contractor provided\"\n        );\n        transfer(supplierID, Charities[charity].tokenReward);\n        deleteRequest1(charity);\n        deleteRequest2(charity);\n        return true;\n    }\n\n    function deleteRequest1(string memory charity) internal {\n        require(isCharity(charity), \"Charity requested is not within list\");\n        uint256 rowToDelete = Addresses[Charities[charity].ID].index;\n        address keyToMove = addressIndex[addressIndex.length - 1];\n        addressIndex[rowToDelete] = keyToMove;\n        Addresses[keyToMove].index = rowToDelete;\n        addressIndex.length--;\n    }\n\n    function deleteRequest2(string memory charity) internal {\n        require(isCharity(charity), \"Charity requested is not within list\");\n        uint256 rowToDelete = Charities[charity].index;\n        string memory keyToMove = charityIndex[charityIndex.length - 1];\n        charityIndex[rowToDelete] = keyToMove;\n        Charities[keyToMove].index = rowToDelete;\n        charityIndex.length--;\n        emit LogDeleteCharity(charity, true, rowToDelete);\n    }\n\n    function strConcat(string memory _a, string memory _b)\n        internal\n        pure\n        returns (string memory)\n    {\n        bytes memory _ba = bytes(_a);\n        bytes memory _bb = bytes(_b);\n        string memory ab = new string(_ba.length + _bb.length);\n        bytes memory bab = bytes(ab);\n        uint256 k = 0;\n        for (uint256 i = 0; i < _ba.length; i++) bab[k++] = _ba[i];\n        for (uint256 i = 0; i < _bb.length; i++) bab[k++] = _bb[i];\n        return string(bab);\n    }\n\n    function hashComp(string memory a, string memory b)\n        internal\n        pure\n        returns (bool)\n    {\n        if (bytes(a).length != bytes(b).length) {\n            return false;\n        } else {\n            return keccak256(bytes(a)) == keccak256(bytes(b));\n        }\n    }\n}\n",
  "sourcePath": "/Users/Beth/Charity/contracts/Charity.sol",
  "compiler": {
    "name": "solc",
    "version": "0.5.16+commit.9c3226ce.Emscripten.clang"
  },
  "schemaVersion": "3.0.22",
  "updatedAt": "2020-06-25T04:52:34.922Z",
  "networkType": "ethereum",
  "devdoc": {
    "methods": {}
  },
  "userdoc": {
    "methods": {}
  }
}