{
  "contractName": "SupplyChain",
  "abi": [
    {
      "inputs": [],
      "payable": false,
      "stateMutability": "nonpayable",
      "type": "constructor"
    },
    {
      "anonymous": false,
      "inputs": [
        {
          "indexed": true,
          "internalType": "address",
          "name": "owner",
          "type": "address"
        },
        {
          "indexed": true,
          "internalType": "address",
          "name": "spender",
          "type": "address"
        },
        {
          "indexed": false,
          "internalType": "uint256",
          "name": "value",
          "type": "uint256"
        }
      ],
      "name": "Approval",
      "type": "event"
    },
    {
      "anonymous": false,
      "inputs": [
        {
          "indexed": false,
          "internalType": "string",
          "name": "charityName",
          "type": "string"
        },
        {
          "indexed": false,
          "internalType": "bool",
          "name": "completedRequest",
          "type": "bool"
        },
        {
          "indexed": false,
          "internalType": "uint256",
          "name": "index",
          "type": "uint256"
        }
      ],
      "name": "LogDeleteCharity",
      "type": "event"
    },
    {
      "anonymous": false,
      "inputs": [
        {
          "indexed": false,
          "internalType": "string",
          "name": "charityName",
          "type": "string"
        },
        {
          "indexed": false,
          "internalType": "address",
          "name": "ID",
          "type": "address"
        },
        {
          "indexed": false,
          "internalType": "string",
          "name": "request",
          "type": "string"
        },
        {
          "indexed": false,
          "internalType": "string",
          "name": "primaryContact",
          "type": "string"
        },
        {
          "indexed": false,
          "internalType": "bool",
          "name": "urgent",
          "type": "bool"
        },
        {
          "indexed": false,
          "internalType": "uint256",
          "name": "tokenReward",
          "type": "uint256"
        },
        {
          "indexed": false,
          "internalType": "uint256",
          "name": "index",
          "type": "uint256"
        }
      ],
      "name": "LogNewCharity",
      "type": "event"
    },
    {
      "anonymous": false,
      "inputs": [
        {
          "indexed": false,
          "internalType": "string",
          "name": "supplierName",
          "type": "string"
        },
        {
          "indexed": false,
          "internalType": "address",
          "name": "ID",
          "type": "address"
        },
        {
          "indexed": false,
          "internalType": "string",
          "name": "primaryContact",
          "type": "string"
        },
        {
          "indexed": false,
          "internalType": "uint256",
          "name": "index",
          "type": "uint256"
        }
      ],
      "name": "LogNewSupplier",
      "type": "event"
    },
    {
      "anonymous": false,
      "inputs": [
        {
          "indexed": true,
          "internalType": "address",
          "name": "from",
          "type": "address"
        },
        {
          "indexed": true,
          "internalType": "address",
          "name": "to",
          "type": "address"
        },
        {
          "indexed": false,
          "internalType": "uint256",
          "name": "value",
          "type": "uint256"
        }
      ],
      "name": "Transfer",
      "type": "event"
    },
    {
      "constant": true,
      "inputs": [
        {
          "internalType": "string",
          "name": "",
          "type": "string"
        }
      ],
      "name": "Charities",
      "outputs": [
        {
          "internalType": "string",
          "name": "charityName",
          "type": "string"
        },
        {
          "internalType": "address",
          "name": "ID",
          "type": "address"
        },
        {
          "internalType": "string",
          "name": "request",
          "type": "string"
        },
        {
          "internalType": "uint256",
          "name": "members",
          "type": "uint256"
        },
        {
          "internalType": "string",
          "name": "primaryContact",
          "type": "string"
        },
        {
          "internalType": "bool",
          "name": "urgent",
          "type": "bool"
        },
        {
          "internalType": "uint256",
          "name": "tokenReward",
          "type": "uint256"
        },
        {
          "internalType": "bool",
          "name": "selected",
          "type": "bool"
        },
        {
          "internalType": "enum SupplyChain.Category",
          "name": "category",
          "type": "uint8"
        },
        {
          "internalType": "uint256",
          "name": "expiry",
          "type": "uint256"
        },
        {
          "internalType": "uint256",
          "name": "index",
          "type": "uint256"
        }
      ],
      "payable": false,
      "stateMutability": "view",
      "type": "function"
    },
    {
      "constant": false,
      "inputs": [
        {
          "internalType": "address",
          "name": "spender",
          "type": "address"
        },
        {
          "internalType": "uint256",
          "name": "value",
          "type": "uint256"
        }
      ],
      "name": "approve",
      "outputs": [
        {
          "internalType": "bool",
          "name": "success",
          "type": "bool"
        }
      ],
      "payable": false,
      "stateMutability": "nonpayable",
      "type": "function"
    },
    {
      "constant": true,
      "inputs": [
        {
          "internalType": "address",
          "name": "",
          "type": "address"
        }
      ],
      "name": "balanceOf",
      "outputs": [
        {
          "internalType": "uint256",
          "name": "",
          "type": "uint256"
        }
      ],
      "payable": false,
      "stateMutability": "view",
      "type": "function"
    },
    {
      "constant": true,
      "inputs": [
        {
          "internalType": "string",
          "name": "",
          "type": "string"
        }
      ],
      "name": "char2Supp",
      "outputs": [
        {
          "internalType": "string",
          "name": "",
          "type": "string"
        }
      ],
      "payable": false,
      "stateMutability": "view",
      "type": "function"
    },
    {
      "constant": true,
      "inputs": [
        {
          "internalType": "uint256",
          "name": "",
          "type": "uint256"
        }
      ],
      "name": "charityIndex",
      "outputs": [
        {
          "internalType": "string",
          "name": "",
          "type": "string"
        }
      ],
      "payable": false,
      "stateMutability": "view",
      "type": "function"
    },
    {
      "constant": true,
      "inputs": [],
      "name": "decimals",
      "outputs": [
        {
          "internalType": "uint8",
          "name": "",
          "type": "uint8"
        }
      ],
      "payable": false,
      "stateMutability": "view",
      "type": "function"
    },
    {
      "constant": true,
      "inputs": [],
      "name": "name",
      "outputs": [
        {
          "internalType": "string",
          "name": "",
          "type": "string"
        }
      ],
      "payable": false,
      "stateMutability": "view",
      "type": "function"
    },
    {
      "constant": true,
      "inputs": [],
      "name": "owner",
      "outputs": [
        {
          "internalType": "address",
          "name": "",
          "type": "address"
        }
      ],
      "payable": false,
      "stateMutability": "view",
      "type": "function"
    },
    {
      "constant": true,
      "inputs": [
        {
          "internalType": "string",
          "name": "",
          "type": "string"
        }
      ],
      "name": "supplierAddress",
      "outputs": [
        {
          "internalType": "address",
          "name": "",
          "type": "address"
        }
      ],
      "payable": false,
      "stateMutability": "view",
      "type": "function"
    },
    {
      "constant": true,
      "inputs": [],
      "name": "symbol",
      "outputs": [
        {
          "internalType": "string",
          "name": "",
          "type": "string"
        }
      ],
      "payable": false,
      "stateMutability": "view",
      "type": "function"
    },
    {
      "constant": true,
      "inputs": [],
      "name": "totalSupply",
      "outputs": [
        {
          "internalType": "uint256",
          "name": "",
          "type": "uint256"
        }
      ],
      "payable": false,
      "stateMutability": "view",
      "type": "function"
    },
    {
      "constant": false,
      "inputs": [
        {
          "internalType": "address",
          "name": "to",
          "type": "address"
        },
        {
          "internalType": "uint256",
          "name": "value",
          "type": "uint256"
        }
      ],
      "name": "transfer",
      "outputs": [
        {
          "internalType": "bool",
          "name": "success",
          "type": "bool"
        }
      ],
      "payable": false,
      "stateMutability": "nonpayable",
      "type": "function"
    },
    {
      "constant": false,
      "inputs": [
        {
          "internalType": "address",
          "name": "from",
          "type": "address"
        },
        {
          "internalType": "address",
          "name": "to",
          "type": "address"
        },
        {
          "internalType": "uint256",
          "name": "value",
          "type": "uint256"
        }
      ],
      "name": "transferFrom",
      "outputs": [
        {
          "internalType": "bool",
          "name": "success",
          "type": "bool"
        }
      ],
      "payable": false,
      "stateMutability": "nonpayable",
      "type": "function"
    },
    {
      "constant": true,
      "inputs": [
        {
          "internalType": "string",
          "name": "charity",
          "type": "string"
        }
      ],
      "name": "isCharity",
      "outputs": [
        {
          "internalType": "bool",
          "name": "isIndeed",
          "type": "bool"
        }
      ],
      "payable": false,
      "stateMutability": "view",
      "type": "function"
    },
    {
      "constant": true,
      "inputs": [
        {
          "internalType": "string",
          "name": "supplier",
          "type": "string"
        }
      ],
      "name": "isSupplier",
      "outputs": [
        {
          "internalType": "bool",
          "name": "isIndeed",
          "type": "bool"
        }
      ],
      "payable": false,
      "stateMutability": "view",
      "type": "function"
    },
    {
      "constant": true,
      "inputs": [
        {
          "internalType": "address",
          "name": "ID",
          "type": "address"
        }
      ],
      "name": "isAddress",
      "outputs": [
        {
          "internalType": "bool",
          "name": "isIndeed",
          "type": "bool"
        }
      ],
      "payable": false,
      "stateMutability": "view",
      "type": "function"
    },
    {
      "constant": false,
      "inputs": [
        {
          "internalType": "string",
          "name": "charityName",
          "type": "string"
        },
        {
          "internalType": "address",
          "name": "ID",
          "type": "address"
        },
        {
          "internalType": "string",
          "name": "request",
          "type": "string"
        },
        {
          "internalType": "uint256",
          "name": "members",
          "type": "uint256"
        },
        {
          "internalType": "string",
          "name": "primaryContact",
          "type": "string"
        },
        {
          "internalType": "bool",
          "name": "urgent",
          "type": "bool"
        },
        {
          "internalType": "enum SupplyChain.Category",
          "name": "category",
          "type": "uint8"
        }
      ],
      "name": "addCharity",
      "outputs": [
        {
          "internalType": "uint256",
          "name": "index",
          "type": "uint256"
        }
      ],
      "payable": false,
      "stateMutability": "nonpayable",
      "type": "function"
    },
    {
      "constant": false,
      "inputs": [
        {
          "internalType": "string",
          "name": "charity",
          "type": "string"
        }
      ],
      "name": "getCharityInfo",
      "outputs": [
        {
          "internalType": "address",
          "name": "ID",
          "type": "address"
        },
        {
          "internalType": "uint256",
          "name": "members",
          "type": "uint256"
        },
        {
          "internalType": "string",
          "name": "primaryContact",
          "type": "string"
        },
        {
          "internalType": "string",
          "name": "request",
          "type": "string"
        },
        {
          "internalType": "enum SupplyChain.Category",
          "name": "category",
          "type": "uint8"
        },
        {
          "internalType": "uint256",
          "name": "tokenReward",
          "type": "uint256"
        },
        {
          "internalType": "bool",
          "name": "selected",
          "type": "bool"
        }
      ],
      "payable": false,
      "stateMutability": "nonpayable",
      "type": "function"
    },
    {
      "constant": true,
      "inputs": [
        {
          "internalType": "string",
          "name": "charity",
          "type": "string"
        }
      ],
      "name": "categoryMatch",
      "outputs": [
        {
          "internalType": "enum SupplyChain.Category",
          "name": "",
          "type": "uint8"
        }
      ],
      "payable": false,
      "stateMutability": "view",
      "type": "function"
    },
    {
      "constant": false,
      "inputs": [
        {
          "internalType": "string",
          "name": "supplier",
          "type": "string"
        },
        {
          "internalType": "address",
          "name": "ID",
          "type": "address"
        },
        {
          "internalType": "uint256",
          "name": "members",
          "type": "uint256"
        },
        {
          "internalType": "string",
          "name": "primaryContact",
          "type": "string"
        },
        {
          "internalType": "enum SupplyChain.Category",
          "name": "category",
          "type": "uint8"
        }
      ],
      "name": "addSupplier",
      "outputs": [
        {
          "internalType": "string",
          "name": "charityList",
          "type": "string"
        }
      ],
      "payable": false,
      "stateMutability": "nonpayable",
      "type": "function"
    },
    {
      "constant": false,
      "inputs": [
        {
          "internalType": "string",
          "name": "charity",
          "type": "string"
        },
        {
          "internalType": "string",
          "name": "supplier",
          "type": "string"
        },
        {
          "internalType": "address",
          "name": "supplierID",
          "type": "address"
        }
      ],
      "name": "selectCharity",
      "outputs": [
        {
          "internalType": "bool",
          "name": "isSelected",
          "type": "bool"
        }
      ],
      "payable": false,
      "stateMutability": "nonpayable",
      "type": "function"
    },
    {
      "constant": false,
      "inputs": [
        {
          "internalType": "string",
          "name": "charity",
          "type": "string"
        },
        {
          "internalType": "string",
          "name": "supplier",
          "type": "string"
        },
        {
          "internalType": "address",
          "name": "supplierID",
          "type": "address"
        }
      ],
      "name": "deliverRequest",
      "outputs": [
        {
          "internalType": "bool",
          "name": "completedRequest",
          "type": "bool"
        }
      ],
      "payable": false,
      "stateMutability": "nonpayable",
      "type": "function"
    }
  ],
  "bytecode": "0x60806040526040518060400160405280601381526020017f4368617269747920455243323020546f6b656e00000000000000000000000000815250600290805190602001906200005192919062000261565b506040518060400160405280600481526020017f43544b4e00000000000000000000000000000000000000000000000000000000815250600390805190602001906200009f92919062000261565b506012600460006101000a81548160ff021916908360ff160217905550600460009054906101000a900460ff1660ff16600a0a620f424002600555348015620000e757600080fd5b5033600160006101000a81548173ffffffffffffffffffffffffffffffffffffffff021916908373ffffffffffffffffffffffffffffffffffffffff160217905550600554600080600160009054906101000a900473ffffffffffffffffffffffffffffffffffffffff1673ffffffffffffffffffffffffffffffffffffffff1673ffffffffffffffffffffffffffffffffffffffff16815260200190815260200160002081905550600160009054906101000a900473ffffffffffffffffffffffffffffffffffffffff1673ffffffffffffffffffffffffffffffffffffffff16600073ffffffffffffffffffffffffffffffffffffffff167fddf252ad1be2c89b69c2b068fc378daa952ba7f163c4a11628f55a4df523b3ef6005546040518082815260200191505060405180910390a333600160006101000a81548173ffffffffffffffffffffffffffffffffffffffff021916908373ffffffffffffffffffffffffffffffffffffffff16021790555062000310565b828054600181600116156101000203166002900490600052602060002090601f016020900481019282601f10620002a457805160ff1916838001178555620002d5565b82800160010185558215620002d5579182015b82811115620002d4578251825591602001919060010190620002b7565b5b509050620002e49190620002e8565b5090565b6200030d91905b8082111562000309576000816000905550600101620002ef565b5090565b90565b614fb580620003206000396000f3fe608060405234801561001057600080fd5b50600436106101425760003560e01c80636ddb233d116100b8578063ac9ccfa41161007c578063ac9ccfa414610e2a578063adaccb6314610f5e578063c0428259146110e8578063e3194f0414611272578063fb7892ba1461136d578063fcbb604d1461141457610142565b80636ddb233d14610a9d57806370a0823114610c9f5780638da5cb5b14610cf757806395d89b4114610d41578063a9059cbb14610dc457610142565b806323b872dd1161010a57806323b872dd146105b157806330fa7f9114610637578063313ce567146108775780633f227aa61461089b5780634dc50ae11461096e5780635c32460b14610a4157610142565b806306fdde0314610147578063095ea7b3146101ca5780630bfeba22146102305780631042b0521461030d57806318160ddd14610593575b600080fd5b61014f611615565b6040518080602001828103825283818151815260200191508051906020019080838360005b8381101561018f578082015181840152602081019050610174565b50505050905090810190601f1680156101bc5780820380516001836020036101000a031916815260200191505b509250505060405180910390f35b610216600480360360408110156101e057600080fd5b81019080803573ffffffffffffffffffffffffffffffffffffffff169060200190929190803590602001909291905050506116b3565b604051808215151515815260200191505060405180910390f35b6102e96004803603602081101561024657600080fd5b810190808035906020019064010000000081111561026357600080fd5b82018360208201111561027557600080fd5b8035906020019184600183028401116401000000008311171561029757600080fd5b91908080601f016020809104026020016040519081016040528093929190818152602001838380828437600081840152601f19601f8201169050808301925050505050505091929192905050506117a5565b604051808260068111156102f957fe5b60ff16815260200191505060405180910390f35b6103c66004803603602081101561032357600080fd5b810190808035906020019064010000000081111561034057600080fd5b82018360208201111561035257600080fd5b8035906020019184600183028401116401000000008311171561037457600080fd5b91908080601f016020809104026020016040519081016040528093929190818152602001838380828437600081840152601f19601f820116905080830192505050505050509192919290505050611828565b60405180806020018c73ffffffffffffffffffffffffffffffffffffffff1673ffffffffffffffffffffffffffffffffffffffff168152602001806020018b8152602001806020018a1515151581526020018981526020018815151515815260200187600681111561043457fe5b60ff16815260200186815260200185815260200184810384528f818151815260200191508051906020019080838360005b83811015610480578082015181840152602081019050610465565b50505050905090810190601f1680156104ad5780820380516001836020036101000a031916815260200191505b5084810383528d818151815260200191508051906020019080838360005b838110156104e65780820151818401526020810190506104cb565b50505050905090810190601f1680156105135780820380516001836020036101000a031916815260200191505b5084810382528b818151815260200191508051906020019080838360005b8381101561054c578082015181840152602081019050610531565b50505050905090810190601f1680156105795780820380516001836020036101000a031916815260200191505b509e50505050505050505050505050505060405180910390f35b61059b611aa7565b6040518082815260200191505060405180910390f35b61061d600480360360608110156105c757600080fd5b81019080803573ffffffffffffffffffffffffffffffffffffffff169060200190929190803573ffffffffffffffffffffffffffffffffffffffff16906020019092919080359060200190929190505050611aad565b604051808215151515815260200191505060405180910390f35b610861600480360360e081101561064d57600080fd5b810190808035906020019064010000000081111561066a57600080fd5b82018360208201111561067c57600080fd5b8035906020019184600183028401116401000000008311171561069e57600080fd5b91908080601f016020809104026020016040519081016040528093929190818152602001838380828437600081840152601f19601f820116905080830192505050505050509192919290803573ffffffffffffffffffffffffffffffffffffffff1690602001909291908035906020019064010000000081111561072157600080fd5b82018360208201111561073357600080fd5b8035906020019184600183028401116401000000008311171561075557600080fd5b91908080601f016020809104026020016040519081016040528093929190818152602001838380828437600081840152601f19601f82011690508083019250505050505050919291929080359060200190929190803590602001906401000000008111156107c257600080fd5b8201836020820111156107d457600080fd5b803590602001918460018302840111640100000000831117156107f657600080fd5b91908080601f016020809104026020016040519081016040528093929190818152602001838380828437600081840152601f19601f820116905080830192505050505050509192919290803515159060200190929190803560ff169060200190929190505050611de7565b6040518082815260200191505060405180910390f35b61087f612782565b604051808260ff1660ff16815260200191505060405180910390f35b610954600480360360208110156108b157600080fd5b81019080803590602001906401000000008111156108ce57600080fd5b8201836020820111156108e057600080fd5b8035906020019184600183028401116401000000008311171561090257600080fd5b91908080601f016020809104026020016040519081016040528093929190818152602001838380828437600081840152601f19601f820116905080830192505050505050509192919290505050612795565b604051808215151515815260200191505060405180910390f35b610a276004803603602081101561098457600080fd5b81019080803590602001906401000000008111156109a157600080fd5b8201836020820111156109b357600080fd5b803590602001918460018302840111640100000000831117156109d557600080fd5b91908080601f016020809104026020016040519081016040528093929190818152602001838380828437600081840152601f19601f8201169050808301925050505050505091929192905050506128a9565b604051808215151515815260200191505060405180910390f35b610a8360048036036020811015610a5757600080fd5b81019080803573ffffffffffffffffffffffffffffffffffffffff1690602001909291905050506129bd565b604051808215151515815260200191505060405180910390f35b610c24600480360360a0811015610ab357600080fd5b8101908080359060200190640100000000811115610ad057600080fd5b820183602082011115610ae257600080fd5b80359060200191846001830284011164010000000083111715610b0457600080fd5b91908080601f016020809104026020016040519081016040528093929190818152602001838380828437600081840152601f19601f820116905080830192505050505050509192919290803573ffffffffffffffffffffffffffffffffffffffff1690602001909291908035906020019092919080359060200190640100000000811115610b9157600080fd5b820183602082011115610ba357600080fd5b80359060200191846001830284011164010000000083111715610bc557600080fd5b91908080601f016020809104026020016040519081016040528093929190818152602001838380828437600081840152601f19601f820116905080830192505050505050509192919290803560ff169060200190929190505050612a85565b6040518080602001828103825283818151815260200191508051906020019080838360005b83811015610c64578082015181840152602081019050610c49565b50505050905090810190601f168015610c915780820380516001836020036101000a031916815260200191505b509250505060405180910390f35b610ce160048036036020811015610cb557600080fd5b81019080803573ffffffffffffffffffffffffffffffffffffffff1690602001909291905050506133d2565b6040518082815260200191505060405180910390f35b610cff6133ea565b604051808273ffffffffffffffffffffffffffffffffffffffff1673ffffffffffffffffffffffffffffffffffffffff16815260200191505060405180910390f35b610d49613410565b6040518080602001828103825283818151815260200191508051906020019080838360005b83811015610d89578082015181840152602081019050610d6e565b50505050905090810190601f168015610db65780820380516001836020036101000a031916815260200191505b509250505060405180910390f35b610e1060048036036040811015610dda57600080fd5b81019080803573ffffffffffffffffffffffffffffffffffffffff169060200190929190803590602001909291905050506134ae565b604051808215151515815260200191505060405180910390f35b610ee360048036036020811015610e4057600080fd5b8101908080359060200190640100000000811115610e5d57600080fd5b820183602082011115610e6f57600080fd5b80359060200191846001830284011164010000000083111715610e9157600080fd5b91908080601f016020809104026020016040519081016040528093929190818152602001838380828437600081840152601f19601f8201169050808301925050505050505091929192905050506136b4565b6040518080602001828103825283818151815260200191508051906020019080838360005b83811015610f23578082015181840152602081019050610f08565b50505050905090810190601f168015610f505780820380516001836020036101000a031916815260200191505b509250505060405180910390f35b6110ce60048036036060811015610f7457600080fd5b8101908080359060200190640100000000811115610f9157600080fd5b820183602082011115610fa357600080fd5b80359060200191846001830284011164010000000083111715610fc557600080fd5b91908080601f016020809104026020016040519081016040528093929190818152602001838380828437600081840152601f19601f8201169050808301925050505050505091929192908035906020019064010000000081111561102857600080fd5b82018360208201111561103a57600080fd5b8035906020019184600183028401116401000000008311171561105c57600080fd5b91908080601f016020809104026020016040519081016040528093929190818152602001838380828437600081840152601f19601f820116905080830192505050505050509192919290803573ffffffffffffffffffffffffffffffffffffffff16906020019092919050505061377a565b604051808215151515815260200191505060405180910390f35b611258600480360360608110156110fe57600080fd5b810190808035906020019064010000000081111561111b57600080fd5b82018360208201111561112d57600080fd5b8035906020019184600183028401116401000000008311171561114f57600080fd5b91908080601f016020809104026020016040519081016040528093929190818152602001838380828437600081840152601f19601f820116905080830192505050505050509192919290803590602001906401000000008111156111b257600080fd5b8201836020820111156111c457600080fd5b803590602001918460018302840111640100000000831117156111e657600080fd5b91908080601f016020809104026020016040519081016040528093929190818152602001838380828437600081840152601f19601f820116905080830192505050505050509192919290803573ffffffffffffffffffffffffffffffffffffffff169060200190929190505050613a5b565b604051808215151515815260200191505060405180910390f35b61132b6004803603602081101561128857600080fd5b81019080803590602001906401000000008111156112a557600080fd5b8201836020820111156112b757600080fd5b803590602001918460018302840111640100000000831117156112d957600080fd5b91908080601f016020809104026020016040519081016040528093929190818152602001838380828437600081840152601f19601f820116905080830192505050505050509192919290505050613f20565b604051808273ffffffffffffffffffffffffffffffffffffffff1673ffffffffffffffffffffffffffffffffffffffff16815260200191505060405180910390f35b6113996004803603602081101561138357600080fd5b8101908080359060200190929190505050613f69565b6040518080602001828103825283818151815260200191508051906020019080838360005b838110156113d95780820151818401526020810190506113be565b50505050905090810190601f1680156114065780820380516001836020036101000a031916815260200191505b509250505060405180910390f35b6114cd6004803603602081101561142a57600080fd5b810190808035906020019064010000000081111561144757600080fd5b82018360208201111561145957600080fd5b8035906020019184600183028401116401000000008311171561147b57600080fd5b91908080601f016020809104026020016040519081016040528093929190818152602001838380828437600081840152601f19601f820116905080830192505050505050509192919290505050614022565b604051808873ffffffffffffffffffffffffffffffffffffffff1673ffffffffffffffffffffffffffffffffffffffff168152602001878152602001806020018060200186600681111561151d57fe5b60ff16815260200185815260200184151515158152602001838103835288818151815260200191508051906020019080838360005b8381101561156d578082015181840152602081019050611552565b50505050905090810190601f16801561159a5780820380516001836020036101000a031916815260200191505b50838103825287818151815260200191508051906020019080838360005b838110156115d35780820151818401526020810190506115b8565b50505050905090810190601f1680156116005780820380516001836020036101000a031916815260200191505b50995050505050505050505060405180910390f35b60028054600181600116156101000203166002900480601f0160208091040260200160405190810160405280929190818152602001828054600181600116156101000203166002900480156116ab5780601f10611680576101008083540402835291602001916116ab565b820191906000526020600020905b81548152906001019060200180831161168e57829003601f168201915b505050505081565b600081600660003373ffffffffffffffffffffffffffffffffffffffff1673ffffffffffffffffffffffffffffffffffffffff16815260200190815260200160002060008573ffffffffffffffffffffffffffffffffffffffff1673ffffffffffffffffffffffffffffffffffffffff168152602001908152602001600020819055508273ffffffffffffffffffffffffffffffffffffffff163373ffffffffffffffffffffffffffffffffffffffff167f8c5be1e5ebec7d5bd14f71427d1e84f3dd0314c0f7b2291e5b200ac8c7c3b925846040518082815260200191505060405180910390a36001905092915050565b6000600c826040518082805190602001908083835b602083106117dd57805182526020820191506020810190506020830392506117ba565b6001836020036101000a038019825116818451168082178552505050505050905001915050908152602001604051809103902060070160019054906101000a900460ff169050919050565b600c81805160208101820180518482526020830160208501208183528095505050505050600091509050806000018054600181600116156101000203166002900480601f0160208091040260200160405190810160405280929190818152602001828054600181600116156101000203166002900480156118ea5780601f106118bf576101008083540402835291602001916118ea565b820191906000526020600020905b8154815290600101906020018083116118cd57829003601f168201915b5050505050908060010160009054906101000a900473ffffffffffffffffffffffffffffffffffffffff1690806002018054600181600116156101000203166002900480601f0160208091040260200160405190810160405280929190818152602001828054600181600116156101000203166002900480156119ae5780601f10611983576101008083540402835291602001916119ae565b820191906000526020600020905b81548152906001019060200180831161199157829003601f168201915b505050505090806003015490806004018054600181600116156101000203166002900480601f016020809104026020016040519081016040528092919081815260200182805460018160011615610100020316600290048015611a525780601f10611a2757610100808354040283529160200191611a52565b820191906000526020600020905b815481529060010190602001808311611a3557829003601f168201915b5050505050908060050160009054906101000a900460ff16908060060154908060070160009054906101000a900460ff16908060070160019054906101000a900460ff1690806008015490806009015490508b565b60055481565b60008060008573ffffffffffffffffffffffffffffffffffffffff1673ffffffffffffffffffffffffffffffffffffffff16815260200190815260200160002054821115611b63576040517f08c379a00000000000000000000000000000000000000000000000000000000081526004018080602001828103825260148152602001807f42616c616e63653a204e6f204f766572666c6f7700000000000000000000000081525060200191505060405180910390fd5b600660008573ffffffffffffffffffffffffffffffffffffffff1673ffffffffffffffffffffffffffffffffffffffff16815260200190815260200160002060003373ffffffffffffffffffffffffffffffffffffffff1673ffffffffffffffffffffffffffffffffffffffff16815260200190815260200160002054821115611c55576040517f08c379a00000000000000000000000000000000000000000000000000000000081526004018080602001828103825260168152602001807f416c6c6f77616e63653a204e6f204f766572666c6f770000000000000000000081525060200191505060405180910390fd5b816000808673ffffffffffffffffffffffffffffffffffffffff1673ffffffffffffffffffffffffffffffffffffffff16815260200190815260200160002060008282540392505081905550816000808573ffffffffffffffffffffffffffffffffffffffff1673ffffffffffffffffffffffffffffffffffffffff1681526020019081526020016000206000828254019250508190555081600660008673ffffffffffffffffffffffffffffffffffffffff1673ffffffffffffffffffffffffffffffffffffffff16815260200190815260200160002060003373ffffffffffffffffffffffffffffffffffffffff1673ffffffffffffffffffffffffffffffffffffffff168152602001908152602001600020600082825403925050819055508273ffffffffffffffffffffffffffffffffffffffff168473ffffffffffffffffffffffffffffffffffffffff167fddf252ad1be2c89b69c2b068fc378daa952ba7f163c4a11628f55a4df523b3ef846040518082815260200191505060405180910390a3600190509392505050565b6000611df2886128a9565b15611e48576040517f08c379a0000000000000000000000000000000000000000000000000000000008152600401808060200182810382526022815260200180614ee46022913960400191505060405180910390fd5b611e51876129bd565b15611ec4576040517f08c379a000000000000000000000000000000000000000000000000000000000815260040180806020018281038252601c8152602001807f57696c6c206e6f7420616c6c6f77206475706c6963617465204944730000000081525060200191505060405180910390fd5b600160098890806001815401808255809150509060018203906000526020600020016000909192909190916101000a81548173ffffffffffffffffffffffffffffffffffffffff021916908373ffffffffffffffffffffffffffffffffffffffff16021790555003600e60008973ffffffffffffffffffffffffffffffffffffffff1673ffffffffffffffffffffffffffffffffffffffff1681526020019081526020016000206009018190555086600c896040518082805190602001908083835b60208310611fa95780518252602082019150602081019050602083039250611f86565b6001836020036101000a038019825116818451168082178552505050505050905001915050908152602001604051809103902060010160006101000a81548173ffffffffffffffffffffffffffffffffffffffff021916908373ffffffffffffffffffffffffffffffffffffffff16021790555084600c896040518082805190602001908083835b602083106120545780518252602082019150602081019050602083039250612031565b6001836020036101000a03801982511681845116808217855250505050505090500191505090815260200160405180910390206003018190555085600c896040518082805190602001908083835b602083106120c557805182526020820191506020810190506020830392506120a2565b6001836020036101000a0380198251168184511680821785525050505050509050019150509081526020016040518091039020600201908051906020019061210e929190614ca1565b5083600c896040518082805190602001908083835b602083106121465780518252602082019150602081019050602083039250612123565b6001836020036101000a0380198251168184511680821785525050505050509050019150509081526020016040518091039020600401908051906020019061218f929190614ca1565b5082600c896040518082805190602001908083835b602083106121c757805182526020820191506020810190506020830392506121a4565b6001836020036101000a038019825116818451168082178552505050505050905001915050908152602001604051809103902060050160006101000a81548160ff021916908315150217905550600115158315151415612298576004600c896040518082805190602001908083835b602083106122595780518252602082019150602081019050602083039250612236565b6001836020036101000a03801982511681845116808217855250505050505090500191505090815260200160405180910390206006018190555061230b565b6002600c896040518082805190602001908083835b602083106122d057805182526020820191506020810190506020830392506122ad565b6001836020036101000a0380198251168184511680821785525050505050509050019150509081526020016040518091039020600601819055505b81600c896040518082805190602001908083835b60208310612342578051825260208201915060208101905060208303925061231f565b6001836020036101000a038019825116818451168082178552505050505050905001915050908152602001604051809103902060070160016101000a81548160ff0219169083600681111561239357fe5b02179055506000600c896040518082805190602001908083835b602083106123d057805182526020820191506020810190506020830392506123ad565b6001836020036101000a038019825116818451168082178552505050505050905001915050908152602001604051809103902060070160006101000a81548160ff0219169083151502179055506001600789908060018154018082558091505090600182039060005260206000200160009091929091909150908051906020019061245c929190614ca1565b5003600c896040518082805190602001908083835b602083106124945780518252602082019150602081019050602083039250612471565b6001836020036101000a0380198251168184511680821785525050505050509050019150509081526020016040518091039020600901819055507fac5059d06835b5de8c3f846582a7f717fadc253b7b579e7d99d13f2c5b939db88888888787600c8e6040518082805190602001908083835b6020831061252a5780518252602082019150602081019050602083039250612507565b6001836020036101000a038019825116818451168082178552505050505050905001915050908152602001604051809103902060060154600c8f6040518082805190602001908083835b602083106125975780518252602082019150602081019050602083039250612574565b6001836020036101000a03801982511681845116808217855250505050505090500191505090815260200160405180910390206009015460405180806020018873ffffffffffffffffffffffffffffffffffffffff1673ffffffffffffffffffffffffffffffffffffffff16815260200180602001806020018715151515815260200186815260200185815260200184810384528b818151815260200191508051906020019080838360005b8381101561265e578082015181840152602081019050612643565b50505050905090810190601f16801561268b5780820380516001836020036101000a031916815260200191505b50848103835289818151815260200191508051906020019080838360005b838110156126c45780820151818401526020810190506126a9565b50505050905090810190601f1680156126f15780820380516001836020036101000a031916815260200191505b50848103825288818151815260200191508051906020019080838360005b8381101561272a57808201518184015260208101905061270f565b50505050905090810190601f1680156127575780820380516001836020036101000a031916815260200191505b509a505050505050505050505060405180910390a16001600780549050039050979650505050505050565b600460009054906101000a900460ff1681565b60008060088054905014156127ad57600090506128a4565b6008600d836040518082805190602001908083835b602083106127e557805182526020820191506020810190506020830392506127c2565b6001836020036101000a0380198251168184511680821785525050505050509050019150509081526020016040518091039020600501548154811061282657fe5b90600052602060002001604051808280546001816001161561010002031660029004801561288b5780601f1061286957610100808354040283529182019161288b565b820191906000526020600020905b815481529060010190602001808311612877575b5050915050604051809103902082805190602001201490505b919050565b60008060078054905014156128c157600090506129b8565b6007600c836040518082805190602001908083835b602083106128f957805182526020820191506020810190506020830392506128d6565b6001836020036101000a0380198251168184511680821785525050505050509050019150509081526020016040518091039020600901548154811061293a57fe5b90600052602060002001604051808280546001816001161561010002031660029004801561299f5780601f1061297d57610100808354040283529182019161299f565b820191906000526020600020905b81548152906001019060200180831161298b575b5050915050604051809103902082805190602001201490505b919050565b60008060098054905014156129d55760009050612a80565b6009600e60008473ffffffffffffffffffffffffffffffffffffffff1673ffffffffffffffffffffffffffffffffffffffff1681526020019081526020016000206009015481548110612a2457fe5b9060005260206000200160009054906101000a900473ffffffffffffffffffffffffffffffffffffffff1673ffffffffffffffffffffffffffffffffffffffff168273ffffffffffffffffffffffffffffffffffffffff161490505b919050565b6060612a9086612795565b15612ae6576040517f08c379a0000000000000000000000000000000000000000000000000000000008152600401808060200182810382526022815260200180614f066022913960400191505060405180910390fd5b612aef856129bd565b15612b62576040517f08c379a000000000000000000000000000000000000000000000000000000000815260040180806020018281038252601c8152602001807f57696c6c206e6f7420616c6c6f77206475706c6963617465204944730000000081525060200191505060405180910390fd5b600160098690806001815401808255809150509060018203906000526020600020016000909192909190916101000a81548173ffffffffffffffffffffffffffffffffffffffff021916908373ffffffffffffffffffffffffffffffffffffffff16021790555003600e60008773ffffffffffffffffffffffffffffffffffffffff1673ffffffffffffffffffffffffffffffffffffffff1681526020019081526020016000206009018190555084600d876040518082805190602001908083835b60208310612c475780518252602082019150602081019050602083039250612c24565b6001836020036101000a038019825116818451168082178552505050505050905001915050908152602001604051809103902060010160006101000a81548173ffffffffffffffffffffffffffffffffffffffff021916908373ffffffffffffffffffffffffffffffffffffffff160217905550600d866040518082805190602001908083835b60208310612cf15780518252602082019150602081019050602083039250612cce565b6001836020036101000a038019825116818451168082178552505050505050905001915050908152602001604051809103902060010160009054906101000a900473ffffffffffffffffffffffffffffffffffffffff16600b876040518082805190602001908083835b60208310612d7e5780518252602082019150602081019050602083039250612d5b565b6001836020036101000a038019825116818451168082178552505050505050905001915050908152602001604051809103902060006101000a81548173ffffffffffffffffffffffffffffffffffffffff021916908373ffffffffffffffffffffffffffffffffffffffff16021790555083600d876040518082805190602001908083835b60208310612e265780518252602082019150602081019050602083039250612e03565b6001836020036101000a03801982511681845116808217855250505050505090500191505090815260200160405180910390206002018190555082600d876040518082805190602001908083835b60208310612e975780518252602082019150602081019050602083039250612e74565b6001836020036101000a03801982511681845116808217855250505050505090500191505090815260200160405180910390206003019080519060200190612ee0929190614ca1565b5081600d876040518082805190602001908083835b60208310612f185780518252602082019150602081019050602083039250612ef5565b6001836020036101000a038019825116818451168082178552505050505050905001915050908152602001604051809103902060040160006101000a81548160ff02191690836006811115612f6957fe5b021790555060016008879080600181540180825580915050906001820390600052602060002001600090919290919091509080519060200190612fad929190614ca1565b5003600d876040518082805190602001908083835b60208310612fe55780518252602082019150602081019050602083039250612fc2565b6001836020036101000a038019825116818451168082178552505050505050905001915050908152602001604051809103902060050181905550606060008090505b600780549050811015613213576130ec6007828154811061304457fe5b906000526020600020018054600181600116156101000203166002900480601f0160208091040260200160405190810160405280929190818152602001828054600181600116156101000203166002900480156130e25780601f106130b7576101008083540402835291602001916130e2565b820191906000526020600020905b8154815290600101906020018083116130c557829003601f168201915b50505050506117a5565b60068111156130f757fe5b84600681111561310357fe5b1415613206576131c2826007838154811061311a57fe5b906000526020600020018054600181600116156101000203166002900480601f0160208091040260200160405190810160405280929190818152602001828054600181600116156101000203166002900480156131b85780601f1061318d576101008083540402835291602001916131b8565b820191906000526020600020905b81548152906001019060200180831161319b57829003601f168201915b5050505050614609565b9150613203826040518060400160405280600281526020017f2c20000000000000000000000000000000000000000000000000000000000000815250614609565b91505b8080600101915050613027565b507fb9eb4d10aa4154b713eef3ee54f8b3a8118a83ce1cce36a370fec5735147f101878786600d8b6040518082805190602001908083835b6020831061326e578051825260208201915060208101905060208303925061324b565b6001836020036101000a03801982511681845116808217855250505050505090500191505090815260200160405180910390206005015460405180806020018573ffffffffffffffffffffffffffffffffffffffff1673ffffffffffffffffffffffffffffffffffffffff16815260200180602001848152602001838103835287818151815260200191508051906020019080838360005b83811015613321578082015181840152602081019050613306565b50505050905090810190601f16801561334e5780820380516001836020036101000a031916815260200191505b50838103825285818151815260200191508051906020019080838360005b8381101561338757808201518184015260208101905061336c565b50505050905090810190601f1680156133b45780820380516001836020036101000a031916815260200191505b50965050505050505060405180910390a18091505095945050505050565b60006020528060005260406000206000915090505481565b600160009054906101000a900473ffffffffffffffffffffffffffffffffffffffff1681565b60038054600181600116156101000203166002900480601f0160208091040260200160405190810160405280929190818152602001828054600181600116156101000203166002900480156134a65780601f1061347b576101008083540402835291602001916134a6565b820191906000526020600020905b81548152906001019060200180831161348957829003601f168201915b505050505081565b600081600080600160009054906101000a900473ffffffffffffffffffffffffffffffffffffffff1673ffffffffffffffffffffffffffffffffffffffff1673ffffffffffffffffffffffffffffffffffffffff168152602001908152602001600020541015613569576040517f08c379a000000000000000000000000000000000000000000000000000000000815260040180806020018281038252602a815260200180614f28602a913960400191505060405180910390fd5b81600080600160009054906101000a900473ffffffffffffffffffffffffffffffffffffffff1673ffffffffffffffffffffffffffffffffffffffff1673ffffffffffffffffffffffffffffffffffffffff16815260200190815260200160002060008282540392505081905550816000808573ffffffffffffffffffffffffffffffffffffffff1673ffffffffffffffffffffffffffffffffffffffff168152602001908152602001600020600082825401925050819055508273ffffffffffffffffffffffffffffffffffffffff16600160009054906101000a900473ffffffffffffffffffffffffffffffffffffffff1673ffffffffffffffffffffffffffffffffffffffff167fddf252ad1be2c89b69c2b068fc378daa952ba7f163c4a11628f55a4df523b3ef846040518082815260200191505060405180910390a36001905092915050565b600a818051602081018201805184825260208301602085012081835280955050505050506000915090508054600181600116156101000203166002900480601f0160208091040260200160405190810160405280929190818152602001828054600181600116156101000203166002900480156137725780601f1061374757610100808354040283529160200191613772565b820191906000526020600020905b81548152906001019060200180831161375557829003601f168201915b505050505081565b600083600c816040518082805190602001908083835b602083106137b35780518252602082019150602081019050602083039250613790565b6001836020036101000a038019825116818451168082178552505050505050905001915050908152602001604051809103902060080154421115613842576040517f08c379a0000000000000000000000000000000000000000000000000000000008152600401808060200182810382526036815260200180614eae6036913960400191505060405180910390fd5b60011515613951600a876040518082805190602001908083835b6020831061387f578051825260208201915060208101905060208303925061385c565b6001836020036101000a03801982511681845116808217855250505050505090500191505090815260200160405180910390208054600181600116156101000203166002900480601f0160208091040260200160405190810160405280929190818152602001828054600181600116156101000203166002900480156139465780601f1061391b57610100808354040283529160200191613946565b820191906000526020600020905b81548152906001019060200180831161392957829003601f168201915b505050505086614752565b1515146139a9576040517f08c379a000000000000000000000000000000000000000000000000000000000815260040180806020018281038252602f815260200180614f52602f913960400191505060405180910390fd5b6000600460009054906101000a900460ff1660ff16600a0a600c876040518082805190602001908083835b602083106139f757805182526020820191506020810190506020830392506139d4565b6001836020036101000a038019825116818451168082178552505050505050905001915050908152602001604051809103902060060154029050613a3b84826134ae565b50613a4586614780565b613a4e866149ad565b6001925050509392505050565b60008173ffffffffffffffffffffffffffffffffffffffff16600b846040518082805190602001908083835b60208310613aaa5780518252602082019150602081019050602083039250613a87565b6001836020036101000a038019825116818451168082178552505050505050905001915050908152602001604051809103902060009054906101000a900473ffffffffffffffffffffffffffffffffffffffff1673ffffffffffffffffffffffffffffffffffffffff1614613b6a576040517f08c379a0000000000000000000000000000000000000000000000000000000008152600401808060200182810382526031815260200180614e596031913960400191505060405180910390fd5b600d836040518082805190602001908083835b60208310613ba05780518252602082019150602081019050602083039250613b7d565b6001836020036101000a038019825116818451168082178552505050505050905001915050908152602001604051809103902060040160009054906101000a900460ff166006811115613bef57fe5b600c856040518082805190602001908083835b60208310613c255780518252602082019150602081019050602083039250613c02565b6001836020036101000a038019825116818451168082178552505050505050905001915050908152602001604051809103902060070160019054906101000a900460ff166006811115613c7457fe5b14613cca576040517f08c379a0000000000000000000000000000000000000000000000000000000008152600401808060200182810382526025815260200180614e346025913960400191505060405180910390fd5b60001515600c856040518082805190602001908083835b60208310613d045780518252602082019150602081019050602083039250613ce1565b6001836020036101000a038019825116818451168082178552505050505050905001915050908152602001604051809103902060070160009054906101000a900460ff16151514613da0576040517f08c379a0000000000000000000000000000000000000000000000000000000008152600401808060200182810382526021815260200180614e136021913960400191505060405180910390fd5b6102584201600c856040518082805190602001908083835b60208310613ddb5780518252602082019150602081019050602083039250613db8565b6001836020036101000a03801982511681845116808217855250505050505090500191505090815260200160405180910390206008018190555082600a856040518082805190602001908083835b60208310613e4c5780518252602082019150602081019050602083039250613e29565b6001836020036101000a03801982511681845116808217855250505050505090500191505090815260200160405180910390209080519060200190613e92929190614ca1565b506001600c856040518082805190602001908083835b60208310613ecb5780518252602082019150602081019050602083039250613ea8565b6001836020036101000a038019825116818451168082178552505050505050905001915050908152602001604051809103902060070160006101000a81548160ff021916908315150217905590509392505050565b600b818051602081018201805184825260208301602085012081835280955050505050506000915054906101000a900473ffffffffffffffffffffffffffffffffffffffff1681565b60078181548110613f7657fe5b906000526020600020016000915090508054600181600116156101000203166002900480601f01602080910402602001604051908101604052809291908181526020018280546001816001161561010002031660029004801561401a5780601f10613fef5761010080835404028352916020019161401a565b820191906000526020600020905b815481529060010190602001808311613ffd57829003601f168201915b505050505081565b6000806060806000806000614036886128a9565b61408b576040517f08c379a0000000000000000000000000000000000000000000000000000000008152600401808060200182810382526024815260200180614e8a6024913960400191505060405180910390fd5b600c886040518082805190602001908083835b602083106140c1578051825260208201915060208101905060208303925061409e565b6001836020036101000a038019825116818451168082178552505050505050905001915050908152602001604051809103902060080154421115614185576000600c896040518082805190602001908083835b602083106141375780518252602082019150602081019050602083039250614114565b6001836020036101000a038019825116818451168082178552505050505050905001915050908152602001604051809103902060070160006101000a81548160ff0219169083151502179055505b600c886040518082805190602001908083835b602083106141bb5780518252602082019150602081019050602083039250614198565b6001836020036101000a038019825116818451168082178552505050505050905001915050908152602001604051809103902060010160009054906101000a900473ffffffffffffffffffffffffffffffffffffffff16600c896040518082805190602001908083835b602083106142485780518252602082019150602081019050602083039250614225565b6001836020036101000a038019825116818451168082178552505050505050905001915050908152602001604051809103902060030154600c8a6040518082805190602001908083835b602083106142b55780518252602082019150602081019050602083039250614292565b6001836020036101000a0380198251168184511680821785525050505050509050019150509081526020016040518091039020600401600c8b6040518082805190602001908083835b6020831061432157805182526020820191506020810190506020830392506142fe565b6001836020036101000a0380198251168184511680821785525050505050509050019150509081526020016040518091039020600201600c8c6040518082805190602001908083835b6020831061438d578051825260208201915060208101905060208303925061436a565b6001836020036101000a038019825116818451168082178552505050505050905001915050908152602001604051809103902060070160019054906101000a900460ff16600c8d6040518082805190602001908083835b6020831061440757805182526020820191506020810190506020830392506143e4565b6001836020036101000a038019825116818451168082178552505050505050905001915050908152602001604051809103902060060154600c8e6040518082805190602001908083835b602083106144745780518252602082019150602081019050602083039250614451565b6001836020036101000a038019825116818451168082178552505050505050905001915050908152602001604051809103902060070160009054906101000a900460ff16848054600181600116156101000203166002900480601f01602080910402602001604051908101604052809291908181526020018280546001816001161561010002031660029004801561454d5780601f106145225761010080835404028352916020019161454d565b820191906000526020600020905b81548152906001019060200180831161453057829003601f168201915b50505050509450838054600181600116156101000203166002900480601f0160208091040260200160405190810160405280929190818152602001828054600181600116156101000203166002900480156145e95780601f106145be576101008083540402835291602001916145e9565b820191906000526020600020905b8154815290600101906020018083116145cc57829003601f168201915b505050505093509650965096509650965096509650919395979092949650565b6060808390506060839050606081518351016040519080825280601f01601f19166020018201604052801561464d5781602001600182028038833980820191505090505b5090506060819050600080905060008090505b85518110156146ce5785818151811061467557fe5b602001015160f81c60f81b83838060010194508151811061469257fe5b60200101907effffffffffffffffffffffffffffffffffffffffffffffffffffffffffffff1916908160001a9053508080600101915050614660565b5060008090505b8451811015614743578481815181106146ea57fe5b602001015160f81c60f81b83838060010194508151811061470757fe5b60200101907effffffffffffffffffffffffffffffffffffffffffffffffffffffffffffff1916908160001a90535080806001019150506146d5565b50819550505050505092915050565b60008151835114614766576000905061477a565b818051906020012083805190602001201490505b92915050565b614789816128a9565b6147de576040517f08c379a0000000000000000000000000000000000000000000000000000000008152600401808060200182810382526024815260200180614e8a6024913960400191505060405180910390fd5b6000600e6000600c846040518082805190602001908083835b6020831061481a57805182526020820191506020810190506020830392506147f7565b6001836020036101000a038019825116818451168082178552505050505050905001915050908152602001604051809103902060010160009054906101000a900473ffffffffffffffffffffffffffffffffffffffff1673ffffffffffffffffffffffffffffffffffffffff1673ffffffffffffffffffffffffffffffffffffffff16815260200190815260200160002060090154905060006009600160098054905003815481106148c857fe5b9060005260206000200160009054906101000a900473ffffffffffffffffffffffffffffffffffffffff169050806009838154811061490357fe5b9060005260206000200160006101000a81548173ffffffffffffffffffffffffffffffffffffffff021916908373ffffffffffffffffffffffffffffffffffffffff16021790555081600e60008373ffffffffffffffffffffffffffffffffffffffff1673ffffffffffffffffffffffffffffffffffffffff1681526020019081526020016000206009018190555060098054809190600190036149a79190614d21565b50505050565b6149b6816128a9565b614a0b576040517f08c379a0000000000000000000000000000000000000000000000000000000008152600401808060200182810382526024815260200180614e8a6024913960400191505060405180910390fd5b6000600c826040518082805190602001908083835b60208310614a435780518252602082019150602081019050602083039250614a20565b6001836020036101000a03801982511681845116808217855250505050505090500191505090815260200160405180910390206009015490506060600760016007805490500381548110614a9357fe5b906000526020600020018054600181600116156101000203166002900480601f016020809104026020016040519081016040528092919081815260200182805460018160011615610100020316600290048015614b315780601f10614b0657610100808354040283529160200191614b31565b820191906000526020600020905b815481529060010190602001808311614b1457829003601f168201915b505050505090508060078381548110614b4657fe5b906000526020600020019080519060200190614b63929190614ca1565b5081600c826040518082805190602001908083835b60208310614b9b5780518252602082019150602081019050602083039250614b78565b6001836020036101000a0380198251168184511680821785525050505050509050019150509081526020016040518091039020600901819055506007805480919060019003614bea9190614d4d565b507f84422b9592d04e5b8a0f30e52982385d1621c71795d391311bb616a1e6258f0383600184604051808060200184151515158152602001838152602001828103825285818151815260200191508051906020019080838360005b83811015614c60578082015181840152602081019050614c45565b50505050905090810190601f168015614c8d5780820380516001836020036101000a031916815260200191505b5094505050505060405180910390a1505050565b828054600181600116156101000203166002900490600052602060002090601f016020900481019282601f10614ce257805160ff1916838001178555614d10565b82800160010185558215614d10579182015b82811115614d0f578251825591602001919060010190614cf4565b5b509050614d1d9190614d79565b5090565b815481835581811115614d4857818360005260206000209182019101614d479190614d79565b5b505050565b815481835581811115614d7457818360005260206000209182019101614d739190614d9e565b5b505050565b614d9b91905b80821115614d97576000816000905550600101614d7f565b5090565b90565b614dc791905b80821115614dc35760008181614dba9190614dca565b50600101614da4565b5090565b90565b50805460018160011615610100020316600290046000825580601f10614df05750614e0f565b601f016020900490600052602060002090810190614e0e9190614d79565b5b5056fe436861726974792068617320616c7265616479206265656e2073656c656374656443617465676f7269657320646f206e6f74206d6174636820617070726f7072696174656c79436f6e74726163746f72207469746c6520646f6573206e6f74206d6174636820416464726573732070726f7669646564214368617269747920726571756573746564206973206e6f742077697468696e206c69737454696d6520746f20636f6d706c65746520726571756573742069732075702e20546f6b656e207265776172642072657665727465642157696c6c206e6f7420616c6c6f77206475706c69636174652043686172697469657357696c6c206e6f7420616c6c6f77206475706c696361746520537570706c6965727342616c616e6365206f66204f776e6572206973206e6f742067726561746572207468616e2056616c75654368617269747920776173206e6f742073656c656374656420627920436f6e74726163746f722070726f7669646564a265627a7a723158205c2e98f5d0d7bdb52078a7e5c2c508943bfa77f9414842465a46287f13ce535864736f6c63430005100032",
  "source": "pragma solidity 0.5.16;\n\ncontract SimpleERC20Token {\n    // Track how many tokens are owned by each address.\n    mapping(address => uint256) public balanceOf;\n    address public owner;\n\n    // Modify this section\n    string public name = \"Charity ERC20 Token\";\n    string public symbol = \"CTKN\";\n    uint8 public decimals = 18;\n    uint256 public totalSupply = 1000000 * (uint256(10)**decimals);\n\n    event Transfer(address indexed from, address indexed to, uint256 value);\n\n    constructor() public {\n        // Initially assign all tokens to the contract's creator.\n        owner = msg.sender;\n        balanceOf[owner] = totalSupply;\n        emit Transfer(address(0), owner, totalSupply);\n    }\n\n    function transfer(address to, uint256 value) public returns (bool success) {\n        require(\n            balanceOf[owner] >= value,\n            \"Balance of Owner is not greater than Value\"\n        );\n\n        balanceOf[owner] -= value; // deduct from sender's balance\n        balanceOf[to] += value; // add to recipient's balance\n        emit Transfer(owner, to, value);\n        return true;\n    }\n\n    event Approval(\n        address indexed owner,\n        address indexed spender,\n        uint256 value\n    );\n\n    mapping(address => mapping(address => uint256)) private allowance;\n\n    function approve(address spender, uint256 value)\n        public\n        returns (bool success)\n    {\n        allowance[msg.sender][spender] = value;\n        emit Approval(msg.sender, spender, value);\n        return true;\n    }\n\n    function transferFrom(\n        address from,\n        address to,\n        uint256 value\n    ) public returns (bool success) {\n        require(value <= balanceOf[from], \"Balance: No Overflow\");\n        require(value <= allowance[from][msg.sender], \"Allowance: No Overflow\");\n\n        balanceOf[from] -= value;\n        balanceOf[to] += value;\n        allowance[from][msg.sender] -= value;\n        emit Transfer(from, to, value);\n        return true;\n    }\n}\n\ncontract SupplyChain is SimpleERC20Token {\n    enum Category {\n        Food,\n        Clothing,\n        Furniture,\n        Education,\n        Transportation,\n        Medical,\n        Funding\n    }\n\n    struct Charity {\n        string charityName;\n        address ID;\n        string request;\n        uint256 members;\n        string primaryContact;\n        bool urgent;\n        uint256 tokenReward;\n        bool selected;\n        Category category;\n        uint256 expiry;\n        uint256 index;\n    }\n\n    struct Supplier {\n        string supplierName;\n        address ID;\n        uint256 members;\n        string primaryContact;\n        Category category;\n        uint256 index;\n    }\n\n    string[] public charityIndex;\n    string[] private supplierIndex;\n    address[] private addressIndex;\n\n    mapping(string => string) public char2Supp;\n    mapping(string => address) public supplierAddress;\n    mapping(string => Charity) public Charities;\n    mapping(string => Supplier) private Suppliers;\n    mapping(address => Charity) private Addresses;\n\n    event LogNewCharity(\n        string charityName,\n        address ID,\n        string request,\n        string primaryContact,\n        bool urgent,\n        uint256 tokenReward,\n        uint256 index\n    );\n    event LogNewSupplier(\n        string supplierName,\n        address ID,\n        string primaryContact,\n        uint256 index\n    );\n    event LogDeleteCharity(\n        string charityName,\n        bool completedRequest,\n        uint256 index\n    );\n\n    constructor() public {\n        // Initially assign all tokens to the contract's creator.\n        owner = msg.sender;\n    }\n\n    function isCharity(\n        string memory charity //USE for address TRUE mapping for allowing authorization\n    ) public view returns (bool isIndeed) {\n        if (charityIndex.length == 0) return false;\n\n        return\n            keccak256(bytes(charity)) ==\n            keccak256(bytes(charityIndex[Charities[charity].index]));\n    }\n\n    function isSupplier(string memory supplier)\n        public\n        view\n        returns (bool isIndeed)\n    {\n        if (supplierIndex.length == 0) return false;\n\n        return\n            keccak256(bytes(supplier)) ==\n            keccak256(bytes(supplierIndex[Suppliers[supplier].index]));\n    }\n\n    function isAddress(address ID) public view returns (bool isIndeed) {\n        if (addressIndex.length == 0) return false;\n\n        return ((ID) == (addressIndex[Addresses[ID].index]));\n    }\n\n    function addCharity(\n        string memory charityName,\n        address ID,\n        string memory request,\n        uint256 members,\n        string memory primaryContact,\n        bool urgent,\n        Category category\n    ) public returns (uint256 index) {\n        require(!isCharity(charityName), \"Will not allow duplicate Charities\");\n        require(!isAddress(ID), \"Will not allow duplicate IDs\");\n\n        Addresses[ID].index = addressIndex.push(ID) - 1;\n        Charities[charityName].ID = ID;\n        Charities[charityName].members = members;\n        Charities[charityName].request = request;\n        Charities[charityName].primaryContact = primaryContact;\n        Charities[charityName].urgent = urgent;\n        if (urgent == true) {\n            Charities[charityName].tokenReward = 4;\n        } else {\n            Charities[charityName].tokenReward = 2;\n        }\n        Charities[charityName].category = category;\n        Charities[charityName].selected = false;\n        Charities[charityName].index = charityIndex.push(charityName) - 1;\n        emit LogNewCharity(\n            charityName,\n            ID,\n            request,\n            primaryContact,\n            urgent,\n            Charities[charityName].tokenReward,\n            Charities[charityName].index\n        );\n        return charityIndex.length - 1;\n    }\n\n    function getCharityInfo(string memory charity)\n        public\n        returns (\n            address ID,\n            uint256 members,\n            string memory primaryContact,\n            string memory request,\n            Category category,\n            uint256 tokenReward,\n            bool selected\n        )\n    {\n        require(isCharity(charity), \"Charity requested is not within list\");\n        if (block.timestamp > Charities[charity].expiry) {\n            Charities[charity].selected = false;\n        }\n        return (\n            Charities[charity].ID,\n            Charities[charity].members,\n            Charities[charity].primaryContact,\n            Charities[charity].request,\n            Charities[charity].category,\n            Charities[charity].tokenReward,\n            Charities[charity].selected\n        );\n    }\n\n    function categoryMatch(string memory charity)\n        public\n        view\n        returns (Category)\n    {\n        return Charities[charity].category;\n    }\n\n    function addSupplier(\n        string memory supplier,\n        address ID,\n        uint256 members,\n        string memory primaryContact,\n        Category category\n    ) public returns (string memory charityList) {\n        require(!isSupplier(supplier), \"Will not allow duplicate Suppliers\");\n        require(!isAddress(ID), \"Will not allow duplicate IDs\");\n        Addresses[ID].index = addressIndex.push(ID) - 1;\n        Suppliers[supplier].ID = ID;\n        supplierAddress[supplier] = Suppliers[supplier].ID;\n        Suppliers[supplier].members = members;\n        Suppliers[supplier].primaryContact = primaryContact;\n        Suppliers[supplier].category = category;\n        Suppliers[supplier].index = supplierIndex.push(supplier) - 1;\n\n        string memory rString;\n\n        for (uint256 i = 0; i < charityIndex.length; i++) {\n            if (category == categoryMatch(charityIndex[i])) {\n                rString = strConcat(rString, charityIndex[i]);\n                rString = strConcat(rString, \", \");\n            }\n        }\n\n        emit LogNewSupplier(\n            supplier,\n            ID,\n            primaryContact,\n            Suppliers[supplier].index\n        );\n        return rString;\n    }\n\n    modifier timeCheck(string memory charity) {\n        require(\n            block.timestamp <= Charities[charity].expiry,\n            \"Time to complete request is up. Token reward reverted!\"\n        );\n        _;\n    }\n\n    function selectCharity(\n        string memory charity,\n        string memory supplier,\n        address supplierID\n    ) public returns (bool isSelected) {\n        require(\n            supplierAddress[supplier] == supplierID,\n            \"Contractor title does not match Address provided!\"\n        );\n        require(\n            Charities[charity].category == Suppliers[supplier].category,\n            \"Categories do not match appropriately\"\n        );\n        require(\n            Charities[charity].selected == false,\n            \"Charity has already been selected\"\n        );\n        Charities[charity].expiry = block.timestamp + 10 minutes;\n        char2Supp[charity] = supplier;\n        return Charities[charity].selected = true;\n    }\n\n    function deliverRequest(\n        string memory charity,\n        string memory supplier,\n        address supplierID\n    ) public timeCheck(charity) returns (bool completedRequest) {\n        require(\n            hashComp(char2Supp[charity], supplier) == true,\n            \"Charity was not selected by Contractor provided\"\n        );\n        uint tokens = (Charities[charity].tokenReward) * (uint256(10)**decimals);\n        transfer(supplierID, tokens);\n        deleteRequest1(charity);\n        deleteRequest2(charity);\n        return true;\n    }\n\n    function deleteRequest1(string memory charity) internal {\n        require(isCharity(charity), \"Charity requested is not within list\");\n        uint256 rowToDelete = Addresses[Charities[charity].ID].index;\n        address keyToMove = addressIndex[addressIndex.length - 1];\n        addressIndex[rowToDelete] = keyToMove;\n        Addresses[keyToMove].index = rowToDelete;\n        addressIndex.length--;\n    }\n\n    function deleteRequest2(string memory charity) internal {\n        require(isCharity(charity), \"Charity requested is not within list\");\n        uint256 rowToDelete = Charities[charity].index;\n        string memory keyToMove = charityIndex[charityIndex.length - 1];\n        charityIndex[rowToDelete] = keyToMove;\n        Charities[keyToMove].index = rowToDelete;\n        charityIndex.length--;\n        emit LogDeleteCharity(charity, true, rowToDelete);\n    }\n\n    function strConcat(string memory _a, string memory _b)\n        internal\n        pure\n        returns (string memory)\n    {\n        bytes memory _ba = bytes(_a);\n        bytes memory _bb = bytes(_b);\n        string memory ab = new string(_ba.length + _bb.length);\n        bytes memory bab = bytes(ab);\n        uint256 k = 0;\n        for (uint256 i = 0; i < _ba.length; i++) bab[k++] = _ba[i];\n        for (uint256 i = 0; i < _bb.length; i++) bab[k++] = _bb[i];\n        return string(bab);\n    }\n\n    function hashComp(string memory a, string memory b)\n        internal\n        pure\n        returns (bool)\n    {\n        if (bytes(a).length != bytes(b).length) {\n            return false;\n        } else {\n            return keccak256(bytes(a)) == keccak256(bytes(b));\n        }\n    }\n}\n",
  "sourcePath": "/Users/Beth/Charity/contracts/Charity.sol",
  "compiler": {
    "name": "solc",
    "version": "0.5.16+commit.9c3226ce.Emscripten.clang"
  },
  "schemaVersion": "3.0.22",
  "updatedAt": "2020-06-29T05:45:14.843Z",
  "networkType": "ethereum",
  "devdoc": {
    "methods": {}
  },
  "userdoc": {
    "methods": {}
  }
}